{
  "contractName": "MedikChain",
  "abi": [
    {
      "inputs": [],
      "stateMutability": "nonpayable",
      "type": "constructor"
    },
    {
      "anonymous": false,
      "inputs": [
        {
          "indexed": false,
          "internalType": "uint256",
          "name": "id",
          "type": "uint256"
        },
        {
          "indexed": false,
          "internalType": "address",
          "name": "patient",
          "type": "address"
        }
      ],
      "name": "MedicalRecordPublished",
      "type": "event"
    },
    {
      "anonymous": false,
      "inputs": [
        {
          "indexed": false,
          "internalType": "address",
          "name": "patient",
          "type": "address"
        }
      ],
      "name": "PatientRegistered",
      "type": "event"
    },
    {
      "inputs": [
        {
          "internalType": "address payable",
          "name": "_user",
          "type": "address"
        }
      ],
      "name": "grantAdminAccess",
      "outputs": [],
      "stateMutability": "payable",
      "type": "function",
      "payable": true
    },
    {
      "inputs": [
        {
          "internalType": "address payable",
          "name": "_user",
          "type": "address"
        }
      ],
      "name": "grantEditAccess",
      "outputs": [],
      "stateMutability": "payable",
      "type": "function",
      "payable": true
    },
    {
      "inputs": [],
      "name": "canEdit",
      "outputs": [
        {
          "internalType": "bool",
          "name": "",
          "type": "bool"
        }
      ],
      "stateMutability": "view",
      "type": "function",
      "constant": true
    },
    {
      "inputs": [],
      "name": "canGiveAccess",
      "outputs": [
        {
          "internalType": "bool",
          "name": "",
          "type": "bool"
        }
      ],
      "stateMutability": "view",
      "type": "function",
      "constant": true
    },
    {
      "inputs": [
        {
          "internalType": "address",
          "name": "_patient",
          "type": "address"
        },
        {
          "internalType": "address",
          "name": "_physician",
          "type": "address"
        },
        {
          "internalType": "string",
          "name": "_title",
          "type": "string"
        },
        {
          "internalType": "string",
          "name": "_description",
          "type": "string"
        },
        {
          "internalType": "address",
          "name": "_medicalCenter",
          "type": "address"
        },
        {
          "internalType": "string[]",
          "name": "_tags",
          "type": "string[]"
        },
        {
          "internalType": "string",
          "name": "_attachment",
          "type": "string"
        }
      ],
      "name": "addMedicalRecord",
      "outputs": [],
      "stateMutability": "nonpayable",
      "type": "function"
    },
    {
      "inputs": [
        {
          "internalType": "address",
          "name": "_patient",
          "type": "address"
        },
        {
          "internalType": "uint256",
          "name": "_recordId",
          "type": "uint256"
        }
      ],
      "name": "getMedicalRecord",
      "outputs": [
        {
          "components": [
            {
              "internalType": "uint256",
              "name": "id",
              "type": "uint256"
            },
            {
              "internalType": "string",
              "name": "title",
              "type": "string"
            },
            {
              "internalType": "string",
              "name": "description",
              "type": "string"
            },
            {
              "internalType": "address",
              "name": "physician",
              "type": "address"
            },
            {
              "internalType": "address",
              "name": "patient",
              "type": "address"
            },
            {
              "internalType": "uint256",
              "name": "date",
              "type": "uint256"
            },
            {
              "internalType": "address",
              "name": "medicalCenter",
              "type": "address"
            },
            {
              "internalType": "string[]",
              "name": "tags",
              "type": "string[]"
            },
            {
              "internalType": "string",
              "name": "attachment",
              "type": "string"
            }
          ],
          "internalType": "struct MedikChain.MedicalRecord",
          "name": "",
          "type": "tuple"
        }
      ],
      "stateMutability": "view",
      "type": "function",
      "constant": true
    },
    {
      "inputs": [
        {
          "internalType": "address",
          "name": "_patient",
          "type": "address"
        }
      ],
      "name": "getMedicalRecords",
      "outputs": [
        {
          "components": [
            {
              "internalType": "uint256",
              "name": "id",
              "type": "uint256"
            },
            {
              "internalType": "string",
              "name": "title",
              "type": "string"
            },
            {
              "internalType": "string",
              "name": "description",
              "type": "string"
            },
            {
              "internalType": "address",
              "name": "physician",
              "type": "address"
            },
            {
              "internalType": "address",
              "name": "patient",
              "type": "address"
            },
            {
              "internalType": "uint256",
              "name": "date",
              "type": "uint256"
            },
            {
              "internalType": "address",
              "name": "medicalCenter",
              "type": "address"
            },
            {
              "internalType": "string[]",
              "name": "tags",
              "type": "string[]"
            },
            {
              "internalType": "string",
              "name": "attachment",
              "type": "string"
            }
          ],
          "internalType": "struct MedikChain.MedicalRecord[]",
          "name": "",
          "type": "tuple[]"
        }
      ],
      "stateMutability": "view",
      "type": "function",
      "constant": true
    },
    {
      "inputs": [],
      "name": "getPatientsInfo",
      "outputs": [
        {
          "components": [
            {
              "internalType": "address",
              "name": "id",
              "type": "address"
            },
            {
              "internalType": "string",
              "name": "name",
              "type": "string"
            },
            {
              "internalType": "string",
              "name": "nationalId",
              "type": "string"
            },
            {
              "internalType": "string",
              "name": "gender",
              "type": "string"
            },
            {
              "internalType": "bool",
              "name": "registered",
              "type": "bool"
            }
          ],
          "internalType": "struct MedikChain.PatientInfo[]",
          "name": "",
          "type": "tuple[]"
        }
      ],
      "stateMutability": "view",
      "type": "function",
      "constant": true
    },
    {
      "inputs": [],
      "name": "isRegistered",
      "outputs": [
        {
          "internalType": "bool",
          "name": "",
          "type": "bool"
        }
      ],
      "stateMutability": "view",
      "type": "function",
      "constant": true
    },
    {
      "inputs": [
        {
          "internalType": "string",
          "name": "_name",
          "type": "string"
        },
        {
          "internalType": "string",
          "name": "_nationalId",
          "type": "string"
        },
        {
          "internalType": "string",
          "name": "_gender",
          "type": "string"
        }
      ],
      "name": "registerAsPatient",
      "outputs": [],
      "stateMutability": "nonpayable",
      "type": "function"
    }
  ],
  "bytecode": "0x60806040526000805534801561001457600080fd5b50604051806040016040528060011515815260200160011515815250600160003373ffffffffffffffffffffffffffffffffffffffff1673ffffffffffffffffffffffffffffffffffffffff16815260200190815260200160002060008201518160000160006101000a81548160ff02191690831515021790555060208201518160000160016101000a81548160ff021916908315150217905550905050612d79806100c16000396000f3fe6080604052600436106100915760003560e01c806377bd18501161005957806377bd18501461014d57806381beeb6414610178578063afd8297c146101a3578063cbe207dc146101e0578063eea9c37b1461020957610091565b80631822faa31461009657806322366844146100bf57806322b3127a146100ea5780633d1f6ec3146101065780634050cee514610122575b600080fd5b3480156100a257600080fd5b506100bd60048036038101906100b89190612256565b610246565b005b3480156100cb57600080fd5b506100d461046d565b6040516100e191906128fe565b60405180910390f35b61010460048036038101906100ff91906120f3565b6104c4565b005b610120600480360381019061011b91906120f3565b6106a6565b005b34801561012e57600080fd5b5061013761082e565b60405161014491906128fe565b60405180910390f35b34801561015957600080fd5b50610162610885565b60405161016f91906128dc565b60405180910390f35b34801561018457600080fd5b5061018d610ce4565b60405161019a91906128fe565b60405180910390f35b3480156101af57600080fd5b506101ca60048036038101906101c591906120ca565b610d3b565b6040516101d791906128ba565b60405180910390f35b3480156101ec57600080fd5b506102076004803603810190610202919061211c565b6113b3565b005b34801561021557600080fd5b50610230600480360381019061022b919061221a565b611788565b60405161023d9190612999565b60405180910390f35b61024e61046d565b1561028e576040517f08c379a000000000000000000000000000000000000000000000000000000000815260040161028590612959565b60405180910390fd5b6040518060a001604052803373ffffffffffffffffffffffffffffffffffffffff16815260200184815260200183815260200182815260200160011515815250600560003373ffffffffffffffffffffffffffffffffffffffff1673ffffffffffffffffffffffffffffffffffffffff16815260200190815260200160002060008201518160000160006101000a81548173ffffffffffffffffffffffffffffffffffffffff021916908373ffffffffffffffffffffffffffffffffffffffff1602179055506020820151816001019080519060200190610370929190611d60565b50604082015181600201908051906020019061038d929190611d60565b5060608201518160030190805190602001906103aa929190611d60565b5060808201518160040160006101000a81548160ff0219169083151502179055509050506004339080600181540180825580915050600190039060005260206000200160009091909190916101000a81548173ffffffffffffffffffffffffffffffffffffffff021916908373ffffffffffffffffffffffffffffffffffffffff1602179055507fc9fa2003fca4ce0dfc8cb0deae32266b715536df6685365b05b5be96ede8e49c33604051610460919061289f565b60405180910390a1505050565b6000600560003373ffffffffffffffffffffffffffffffffffffffff1673ffffffffffffffffffffffffffffffffffffffff16815260200190815260200160002060040160009054906101000a900460ff16905090565b600160003373ffffffffffffffffffffffffffffffffffffffff1673ffffffffffffffffffffffffffffffffffffffff16815260200190815260200160002060000160009054906101000a900460ff16610553576040517f08c379a000000000000000000000000000000000000000000000000000000000815260040161054a90612979565b60405180910390fd5b671bc16d674ec800008034101561059f576040517f08c379a000000000000000000000000000000000000000000000000000000000815260040161059690612919565b60405180910390fd5b60018060008473ffffffffffffffffffffffffffffffffffffffff1673ffffffffffffffffffffffffffffffffffffffff16815260200190815260200160002060000160006101000a81548160ff02191690831515021790555060018060008473ffffffffffffffffffffffffffffffffffffffff1673ffffffffffffffffffffffffffffffffffffffff16815260200190815260200160002060000160016101000a81548160ff0219169083151502179055508173ffffffffffffffffffffffffffffffffffffffff166108fc671bc16d674ec800009081150290604051600060405180830381858888f193505050501580156106a1573d6000803e3d6000fd5b505050565b600160003373ffffffffffffffffffffffffffffffffffffffff1673ffffffffffffffffffffffffffffffffffffffff16815260200190815260200160002060000160009054906101000a900460ff16610735576040517f08c379a000000000000000000000000000000000000000000000000000000000815260040161072c90612979565b60405180910390fd5b670de0b6b3a764000080341015610781576040517f08c379a000000000000000000000000000000000000000000000000000000000815260040161077890612919565b60405180910390fd5b60018060008473ffffffffffffffffffffffffffffffffffffffff1673ffffffffffffffffffffffffffffffffffffffff16815260200190815260200160002060000160016101000a81548160ff0219169083151502179055508173ffffffffffffffffffffffffffffffffffffffff166108fc670de0b6b3a76400009081150290604051600060405180830381858888f19350505050158015610829573d6000803e3d6000fd5b505050565b6000600160003373ffffffffffffffffffffffffffffffffffffffff1673ffffffffffffffffffffffffffffffffffffffff16815260200190815260200160002060000160009054906101000a900460ff16905090565b6060600160003373ffffffffffffffffffffffffffffffffffffffff1673ffffffffffffffffffffffffffffffffffffffff16815260200190815260200160002060000160019054906101000a900460ff16610916576040517f08c379a000000000000000000000000000000000000000000000000000000000815260040161090d90612979565b60405180910390fd5b6000600480549050905060008167ffffffffffffffff811115610962577f4e487b7100000000000000000000000000000000000000000000000000000000600052604160045260246000fd5b60405190808252806020026020018201604052801561099b57816020015b610988611de6565b8152602001906001900390816109805790505b50905060005b82811015610cdb576000600482815481106109e5577f4e487b7100000000000000000000000000000000000000000000000000000000600052603260045260246000fd5b9060005260206000200160009054906101000a900473ffffffffffffffffffffffffffffffffffffffff169050600560008273ffffffffffffffffffffffffffffffffffffffff1673ffffffffffffffffffffffffffffffffffffffff1681526020019081526020016000206040518060a00160405290816000820160009054906101000a900473ffffffffffffffffffffffffffffffffffffffff1673ffffffffffffffffffffffffffffffffffffffff1673ffffffffffffffffffffffffffffffffffffffff168152602001600182018054610ac290612be5565b80601f0160208091040260200160405190810160405280929190818152602001828054610aee90612be5565b8015610b3b5780601f10610b1057610100808354040283529160200191610b3b565b820191906000526020600020905b815481529060010190602001808311610b1e57829003601f168201915b50505050508152602001600282018054610b5490612be5565b80601f0160208091040260200160405190810160405280929190818152602001828054610b8090612be5565b8015610bcd5780601f10610ba257610100808354040283529160200191610bcd565b820191906000526020600020905b815481529060010190602001808311610bb057829003601f168201915b50505050508152602001600382018054610be690612be5565b80601f0160208091040260200160405190810160405280929190818152602001828054610c1290612be5565b8015610c5f5780601f10610c3457610100808354040283529160200191610c5f565b820191906000526020600020905b815481529060010190602001808311610c4257829003601f168201915b505050505081526020016004820160009054906101000a900460ff161515151581525050838381518110610cbc577f4e487b7100000000000000000000000000000000000000000000000000000000600052603260045260246000fd5b6020026020010181905250508080610cd390612c17565b9150506109a1565b50809250505090565b6000600160003373ffffffffffffffffffffffffffffffffffffffff1673ffffffffffffffffffffffffffffffffffffffff16815260200190815260200160002060000160019054906101000a900460ff16905090565b6060816000600160003373ffffffffffffffffffffffffffffffffffffffff1673ffffffffffffffffffffffffffffffffffffffff16815260200190815260200160002060000160009054906101000a900460ff1690506000600160003373ffffffffffffffffffffffffffffffffffffffff1673ffffffffffffffffffffffffffffffffffffffff16815260200190815260200160002060000160019054906101000a900460ff16905060008373ffffffffffffffffffffffffffffffffffffffff163373ffffffffffffffffffffffffffffffffffffffff161490506000610e2361046d565b90508380610e2e5750825b80610e3f5750818015610e3e5750805b5b610e7e576040517f08c379a0000000000000000000000000000000000000000000000000000000008152600401610e7590612979565b60405180910390fd5b6000600260008973ffffffffffffffffffffffffffffffffffffffff1673ffffffffffffffffffffffffffffffffffffffff16815260200190815260200160002054905060008167ffffffffffffffff811115610f04577f4e487b7100000000000000000000000000000000000000000000000000000000600052604160045260246000fd5b604051908082528060200260200182016040528015610f3d57816020015b610f2a611e2d565b815260200190600190039081610f225790505b50905060005b828110156113a357600360008b73ffffffffffffffffffffffffffffffffffffffff1673ffffffffffffffffffffffffffffffffffffffff16815260200190815260200160002060008281526020019081526020016000206040518061012001604052908160008201548152602001600182018054610fc190612be5565b80601f0160208091040260200160405190810160405280929190818152602001828054610fed90612be5565b801561103a5780601f1061100f5761010080835404028352916020019161103a565b820191906000526020600020905b81548152906001019060200180831161101d57829003601f168201915b5050505050815260200160028201805461105390612be5565b80601f016020809104026020016040519081016040528092919081815260200182805461107f90612be5565b80156110cc5780601f106110a1576101008083540402835291602001916110cc565b820191906000526020600020905b8154815290600101906020018083116110af57829003601f168201915b505050505081526020016003820160009054906101000a900473ffffffffffffffffffffffffffffffffffffffff1673ffffffffffffffffffffffffffffffffffffffff1673ffffffffffffffffffffffffffffffffffffffff1681526020016004820160009054906101000a900473ffffffffffffffffffffffffffffffffffffffff1673ffffffffffffffffffffffffffffffffffffffff1673ffffffffffffffffffffffffffffffffffffffff168152602001600582015481526020016006820160009054906101000a900473ffffffffffffffffffffffffffffffffffffffff1673ffffffffffffffffffffffffffffffffffffffff1673ffffffffffffffffffffffffffffffffffffffff16815260200160078201805480602002602001604051908101604052809291908181526020016000905b828210156112b257838290600052602060002001805461122590612be5565b80601f016020809104026020016040519081016040528092919081815260200182805461125190612be5565b801561129e5780601f106112735761010080835404028352916020019161129e565b820191906000526020600020905b81548152906001019060200180831161128157829003601f168201915b505050505081526020019060010190611206565b5050505081526020016008820180546112ca90612be5565b80601f01602080910402602001604051908101604052809291908181526020018280546112f690612be5565b80156113435780601f1061131857610100808354040283529160200191611343565b820191906000526020600020905b81548152906001019060200180831161132657829003601f168201915b505050505081525050828281518110611385577f4e487b7100000000000000000000000000000000000000000000000000000000600052603260045260246000fd5b6020026020010181905250808061139b90612c17565b915050610f43565b5080975050505050505050919050565b600160003373ffffffffffffffffffffffffffffffffffffffff1673ffffffffffffffffffffffffffffffffffffffff16815260200190815260200160002060000160019054906101000a900460ff16611442576040517f08c379a000000000000000000000000000000000000000000000000000000000815260040161143990612979565b60405180910390fd5b604051806101200160405280600260008a73ffffffffffffffffffffffffffffffffffffffff1673ffffffffffffffffffffffffffffffffffffffff1681526020019081526020016000205481526020018681526020018581526020018773ffffffffffffffffffffffffffffffffffffffff1681526020018873ffffffffffffffffffffffffffffffffffffffff1681526020014281526020018473ffffffffffffffffffffffffffffffffffffffff16815260200183815260200182815250600360008973ffffffffffffffffffffffffffffffffffffffff1673ffffffffffffffffffffffffffffffffffffffff1681526020019081526020016000206000600260008b73ffffffffffffffffffffffffffffffffffffffff1673ffffffffffffffffffffffffffffffffffffffff1681526020019081526020016000205481526020019081526020016000206000820151816000015560208201518160010190805190602001906115b8929190611d60565b5060408201518160020190805190602001906115d5929190611d60565b5060608201518160030160006101000a81548173ffffffffffffffffffffffffffffffffffffffff021916908373ffffffffffffffffffffffffffffffffffffffff16021790555060808201518160040160006101000a81548173ffffffffffffffffffffffffffffffffffffffff021916908373ffffffffffffffffffffffffffffffffffffffff16021790555060a0820151816005015560c08201518160060160006101000a81548173ffffffffffffffffffffffffffffffffffffffff021916908373ffffffffffffffffffffffffffffffffffffffff16021790555060e08201518160070190805190602001906116d1929190611ebb565b506101008201518160080190805190602001906116ef929190611d60565b509050507f88919c45d9d7dd916e0367a3d90ea5059af1eb091c5a047cd5258938ea9f2bac600260008973ffffffffffffffffffffffffffffffffffffffff1673ffffffffffffffffffffffffffffffffffffffff168152602001908152602001600020600081548092919061176490612c17565b91905055886040516117779291906129bb565b60405180910390a150505050505050565b611790611e2d565b826000600160003373ffffffffffffffffffffffffffffffffffffffff1673ffffffffffffffffffffffffffffffffffffffff16815260200190815260200160002060000160009054906101000a900460ff1690506000600160003373ffffffffffffffffffffffffffffffffffffffff1673ffffffffffffffffffffffffffffffffffffffff16815260200190815260200160002060000160019054906101000a900460ff16905060008373ffffffffffffffffffffffffffffffffffffffff163373ffffffffffffffffffffffffffffffffffffffff16149050600061187661046d565b905083806118815750825b8061189257508180156118915750805b5b6118d1576040517f08c379a00000000000000000000000000000000000000000000000000000000081526004016118c890612979565b60405180910390fd5b86600260008a73ffffffffffffffffffffffffffffffffffffffff1673ffffffffffffffffffffffffffffffffffffffff1681526020019081526020016000205411611952576040517f08c379a000000000000000000000000000000000000000000000000000000000815260040161194990612939565b60405180910390fd5b600360008973ffffffffffffffffffffffffffffffffffffffff1673ffffffffffffffffffffffffffffffffffffffff168152602001908152602001600020600088815260200190815260200160002060405180610120016040529081600082015481526020016001820180546119c890612be5565b80601f01602080910402602001604051908101604052809291908181526020018280546119f490612be5565b8015611a415780601f10611a1657610100808354040283529160200191611a41565b820191906000526020600020905b815481529060010190602001808311611a2457829003601f168201915b50505050508152602001600282018054611a5a90612be5565b80601f0160208091040260200160405190810160405280929190818152602001828054611a8690612be5565b8015611ad35780601f10611aa857610100808354040283529160200191611ad3565b820191906000526020600020905b815481529060010190602001808311611ab657829003601f168201915b505050505081526020016003820160009054906101000a900473ffffffffffffffffffffffffffffffffffffffff1673ffffffffffffffffffffffffffffffffffffffff1673ffffffffffffffffffffffffffffffffffffffff1681526020016004820160009054906101000a900473ffffffffffffffffffffffffffffffffffffffff1673ffffffffffffffffffffffffffffffffffffffff1673ffffffffffffffffffffffffffffffffffffffff168152602001600582015481526020016006820160009054906101000a900473ffffffffffffffffffffffffffffffffffffffff1673ffffffffffffffffffffffffffffffffffffffff1673ffffffffffffffffffffffffffffffffffffffff16815260200160078201805480602002602001604051908101604052809291908181526020016000905b82821015611cb9578382906000526020600020018054611c2c90612be5565b80601f0160208091040260200160405190810160405280929190818152602001828054611c5890612be5565b8015611ca55780601f10611c7a57610100808354040283529160200191611ca5565b820191906000526020600020905b815481529060010190602001808311611c8857829003601f168201915b505050505081526020019060010190611c0d565b505050508152602001600882018054611cd190612be5565b80601f0160208091040260200160405190810160405280929190818152602001828054611cfd90612be5565b8015611d4a5780601f10611d1f57610100808354040283529160200191611d4a565b820191906000526020600020905b815481529060010190602001808311611d2d57829003601f168201915b5050505050815250509550505050505092915050565b828054611d6c90612be5565b90600052602060002090601f016020900481019282611d8e5760008555611dd5565b82601f10611da757805160ff1916838001178555611dd5565b82800160010185558215611dd5579182015b82811115611dd4578251825591602001919060010190611db9565b5b509050611de29190611f1b565b5090565b6040518060a00160405280600073ffffffffffffffffffffffffffffffffffffffff1681526020016060815260200160608152602001606081526020016000151581525090565b604051806101200160405280600081526020016060815260200160608152602001600073ffffffffffffffffffffffffffffffffffffffff168152602001600073ffffffffffffffffffffffffffffffffffffffff16815260200160008152602001600073ffffffffffffffffffffffffffffffffffffffff16815260200160608152602001606081525090565b828054828255906000526020600020908101928215611f0a579160200282015b82811115611f09578251829080519060200190611ef9929190611d60565b5091602001919060010190611edb565b5b509050611f179190611f38565b5090565b5b80821115611f34576000816000905550600101611f1c565b5090565b5b80821115611f585760008181611f4f9190611f5c565b50600101611f39565b5090565b508054611f6890612be5565b6000825580601f10611f7a5750611f99565b601f016020900490600052602060002090810190611f989190611f1b565b5b50565b6000611faf611faa84612a15565b6129e4565b9050808382526020820190508260005b85811015611fef5781358501611fd5888261208b565b845260208401935060208301925050600181019050611fbf565b5050509392505050565b600061200c61200784612a41565b6129e4565b90508281526020810184848401111561202457600080fd5b61202f848285612ba3565b509392505050565b60008135905061204681612cfe565b92915050565b60008135905061205b81612d15565b92915050565b600082601f83011261207257600080fd5b8135612082848260208601611f9c565b91505092915050565b600082601f83011261209c57600080fd5b81356120ac848260208601611ff9565b91505092915050565b6000813590506120c481612d2c565b92915050565b6000602082840312156120dc57600080fd5b60006120ea84828501612037565b91505092915050565b60006020828403121561210557600080fd5b60006121138482850161204c565b91505092915050565b600080600080600080600060e0888a03121561213757600080fd5b60006121458a828b01612037565b97505060206121568a828b01612037565b965050604088013567ffffffffffffffff81111561217357600080fd5b61217f8a828b0161208b565b955050606088013567ffffffffffffffff81111561219c57600080fd5b6121a88a828b0161208b565b94505060806121b98a828b01612037565b93505060a088013567ffffffffffffffff8111156121d657600080fd5b6121e28a828b01612061565b92505060c088013567ffffffffffffffff8111156121ff57600080fd5b61220b8a828b0161208b565b91505092959891949750929550565b6000806040838503121561222d57600080fd5b600061223b85828601612037565b925050602061224c858286016120b5565b9150509250929050565b60008060006060848603121561226b57600080fd5b600084013567ffffffffffffffff81111561228557600080fd5b6122918682870161208b565b935050602084013567ffffffffffffffff8111156122ae57600080fd5b6122ba8682870161208b565b925050604084013567ffffffffffffffff8111156122d757600080fd5b6122e38682870161208b565b9150509250925092565b60006122f983836124c4565b905092915050565b600061230d8383612649565b905092915050565b600061232183836127fd565b905092915050565b61233281612b49565b82525050565b61234181612b49565b82525050565b600061235282612aa1565b61235c8185612af4565b93508360208202850161236e85612a71565b8060005b858110156123aa578484038952815161238b85826122ed565b945061239683612acd565b925060208a01995050600181019050612372565b50829750879550505050505092915050565b60006123c782612aac565b6123d18185612b05565b9350836020820285016123e385612a81565b8060005b8581101561241f57848403895281516124008582612301565b945061240b83612ada565b925060208a019950506001810190506123e7565b50829750879550505050505092915050565b600061243c82612ab7565b6124468185612b16565b93508360208202850161245885612a91565b8060005b8581101561249457848403895281516124758582612315565b945061248083612ae7565b925060208a0199505060018101905061245c565b50829750879550505050505092915050565b6124af81612b6d565b82525050565b6124be81612b6d565b82525050565b60006124cf82612ac2565b6124d98185612b27565b93506124e9818560208601612bb2565b6124f281612ced565b840191505092915050565b600061250a602383612b38565b91507f5472616e73616374696f6e2076616c7565206973206e6f74207375666669636960008301527f656e7400000000000000000000000000000000000000000000000000000000006020830152604082019050919050565b6000612570601983612b38565b91507f496e76616c6964206d65646963616c207265636f7264204944000000000000006000830152602082019050919050565b60006125b0601d83612b38565b91507f50617469656e7420697320616c726561647920726567697374657265640000006000830152602082019050919050565b60006125f0604083612b38565b91507f54686973207573657220686173206e6f2073756666696369656e74206163636560008301527f73732072696768747320746f20706572666f726d207468697320616374696f6e6020830152604082019050919050565b6000610120830160008301516126626000860182612881565b506020830151848203602086015261267a82826124c4565b9150506040830151848203604086015261269482826124c4565b91505060608301516126a96060860182612329565b5060808301516126bc6080860182612329565b5060a08301516126cf60a0860182612881565b5060c08301516126e260c0860182612329565b5060e083015184820360e08601526126fa8282612347565b91505061010083015184820361010086015261271682826124c4565b9150508091505092915050565b60006101208301600083015161273c6000860182612881565b506020830151848203602086015261275482826124c4565b9150506040830151848203604086015261276e82826124c4565b91505060608301516127836060860182612329565b5060808301516127966080860182612329565b5060a08301516127a960a0860182612881565b5060c08301516127bc60c0860182612329565b5060e083015184820360e08601526127d48282612347565b9150506101008301518482036101008601526127f082826124c4565b9150508091505092915050565b600060a0830160008301516128156000860182612329565b506020830151848203602086015261282d82826124c4565b9150506040830151848203604086015261284782826124c4565b9150506060830151848203606086015261286182826124c4565b915050608083015161287660808601826124a6565b508091505092915050565b61288a81612b99565b82525050565b61289981612b99565b82525050565b60006020820190506128b46000830184612338565b92915050565b600060208201905081810360008301526128d481846123bc565b905092915050565b600060208201905081810360008301526128f68184612431565b905092915050565b600060208201905061291360008301846124b5565b92915050565b60006020820190508181036000830152612932816124fd565b9050919050565b6000602082019050818103600083015261295281612563565b9050919050565b60006020820190508181036000830152612972816125a3565b9050919050565b60006020820190508181036000830152612992816125e3565b9050919050565b600060208201905081810360008301526129b38184612723565b905092915050565b60006040820190506129d06000830185612890565b6129dd6020830184612338565b9392505050565b6000604051905081810181811067ffffffffffffffff82111715612a0b57612a0a612cbe565b5b8060405250919050565b600067ffffffffffffffff821115612a3057612a2f612cbe565b5b602082029050602081019050919050565b600067ffffffffffffffff821115612a5c57612a5b612cbe565b5b601f19601f8301169050602081019050919050565b6000819050602082019050919050565b6000819050602082019050919050565b6000819050602082019050919050565b600081519050919050565b600081519050919050565b600081519050919050565b600081519050919050565b6000602082019050919050565b6000602082019050919050565b6000602082019050919050565b600082825260208201905092915050565b600082825260208201905092915050565b600082825260208201905092915050565b600082825260208201905092915050565b600082825260208201905092915050565b6000612b5482612b79565b9050919050565b6000612b6682612b79565b9050919050565b60008115159050919050565b600073ffffffffffffffffffffffffffffffffffffffff82169050919050565b6000819050919050565b82818337600083830152505050565b60005b83811015612bd0578082015181840152602081019050612bb5565b83811115612bdf576000848401525b50505050565b60006002820490506001821680612bfd57607f821691505b60208210811415612c1157612c10612c8f565b5b50919050565b6000612c2282612b99565b91507fffffffffffffffffffffffffffffffffffffffffffffffffffffffffffffffff821415612c5557612c54612c60565b5b600182019050919050565b7f4e487b7100000000000000000000000000000000000000000000000000000000600052601160045260246000fd5b7f4e487b7100000000000000000000000000000000000000000000000000000000600052602260045260246000fd5b7f4e487b7100000000000000000000000000000000000000000000000000000000600052604160045260246000fd5b6000601f19601f8301169050919050565b612d0781612b49565b8114612d1257600080fd5b50565b612d1e81612b5b565b8114612d2957600080fd5b50565b612d3581612b99565b8114612d4057600080fd5b5056fea264697066735822122047ce318b4e4db66a7ad9b3c8343d03d712938f3ec473b99e52d837b3cc2e5f5364736f6c63430008000033",
  "immutableReferences": {},
  "source": "// SPDX-License-Identifier: UNLICENSED\npragma solidity ^0.8.0;\n\n/// @title MedikChain\n/// @author Radoslav Dimitrov\ncontract MedikChain {\n\n    struct MedicalRecord {\n        uint id;\n        string title;\n        string description;\n        address physician;\n        address patient;\n        uint date;\n        address medicalCenter;\n        string[] tags;\n        string attachment;\n    }\n\n    struct UserRole {\n        bool isAdmin; // Admins can grant edit access and can also edit\n        bool isEditor; // Editors can push changes to the blockchain\n    }\n\n    struct PatientInfo {\n        address id;\n        string name;\n        string nationalId;\n        string gender;\n        bool registered;\n    }\n\n    event MedicalRecordPublished (\n        uint id,\n        address patient\n    );\n\n    event PatientRegistered (\n        address patient\n    );\n\n    uint private recordsCount = 0;\n\n    // keeps mapping between user (their address) and their access rights\n    mapping(address => UserRole) private userRoles;\n\n    // keeps the mapping between users and the id generator for their records\n    mapping(address => uint) private recordsForPatients;\n\n    // @notice this mapping is the main structure of data for this contract\n    // it maps the patient address to a nested mapping of ids => records of data\n    mapping(address => mapping(uint => MedicalRecord)) private patientRecords;\n\n    address[] private registeredPatients;\n    mapping(address => PatientInfo) private patientsInfo;\n\n    constructor() {\n        // initially, only the creator has access rights\n        userRoles[msg.sender] = UserRole(true, true);\n    }\n\n    modifier onlyEditors() {\n        require(userRoles[msg.sender].isEditor, \"This user has no sufficient access rights to perform this action\");\n        _;\n    }\n\n    modifier onlyAdmins() {\n        require(userRoles[msg.sender].isAdmin, \"This user has no sufficient access rights to perform this action\");\n        _;\n    }\n\n    modifier onlyViewer(address _patient) {\n        bool isAdmin = userRoles[msg.sender].isAdmin;\n        bool isEditor = userRoles[msg.sender].isEditor;\n        bool isOwner = (msg.sender == _patient);\n        bool registered = isRegistered();\n        require(isAdmin || isEditor || (isOwner && registered), \"This user has no sufficient access rights to perform this action\");\n        _;\n    }\n\n    modifier expectPaymentAmount(uint paymentAmount) {\n        require(msg.value >= paymentAmount, \"Transaction value is not sufficient\");\n        _;\n    }\n\n    function grantAdminAccess(address payable _user) public payable onlyAdmins expectPaymentAmount(2 ether) {\n        userRoles[_user].isAdmin = true;\n        userRoles[_user].isEditor = true;\n        _user.transfer(2 ether);\n    }\n\n    function grantEditAccess(address payable _user) public payable onlyAdmins expectPaymentAmount(1 ether) {\n        userRoles[_user].isEditor = true;\n        _user.transfer(1 ether);\n    }\n\n    function canEdit() public view returns(bool) {\n        return userRoles[msg.sender].isEditor;\n    }\n\n    function canGiveAccess() public view returns(bool) {\n        return userRoles[msg.sender].isAdmin;\n    }\n\n    function addMedicalRecord(address _patient, address _physician, string memory _title, string memory _description,\n                              address _medicalCenter, string[] memory _tags, string memory _attachment) public onlyEditors {\n        patientRecords[_patient][recordsForPatients[_patient]] = MedicalRecord(recordsForPatients[_patient], _title, _description, _physician,\n                                                                      _patient, block.timestamp, _medicalCenter, _tags,\n                                                                      _attachment);\n        emit MedicalRecordPublished(recordsForPatients[_patient]++, _patient);\n    }\n\n    function getMedicalRecord(address _patient, uint _recordId) public onlyViewer(_patient) view returns (MedicalRecord memory) {\n        require(recordsForPatients[_patient] > _recordId, \"Invalid medical record ID\");\n        return patientRecords[_patient][_recordId];\n    }\n\n    function getMedicalRecords(address _patient) public onlyViewer(_patient) view returns (MedicalRecord[] memory) {\n        uint recordsCountForUser = recordsForPatients[_patient];\n        MedicalRecord[] memory result = new MedicalRecord[](recordsCountForUser);\n        for (uint i = 0; i < recordsCountForUser; i++) {\n            result[i] = patientRecords[_patient][i];\n        }\n        return result;\n    }\n\n    function getPatientsInfo() public onlyEditors view returns (PatientInfo[] memory) {\n        uint registeredPatientsCount = registeredPatients.length;\n        PatientInfo[] memory result = new PatientInfo[](registeredPatientsCount);\n        for (uint i = 0; i < registeredPatientsCount; i++) {\n            address currentPatient = registeredPatients[i];\n            result[i] = patientsInfo[currentPatient];\n        }\n        return result;\n    }\n\n    function isRegistered() public view returns(bool) {\n        return patientsInfo[msg.sender].registered;\n    }\n\n    function registerAsPatient(string memory _name, string memory _nationalId, string memory _gender) public {\n        require(!isRegistered(), \"Patient is already registered\");\n        patientsInfo[msg.sender] = PatientInfo(msg.sender, _name, _nationalId, _gender, true);\n        registeredPatients.push(msg.sender);\n        emit PatientRegistered(msg.sender);\n    }\n}",
  "sourcePath": "/Users/i530753/Desktop/medikchain/medikchain/contracts/MedikChain.sol",
  "compiler": {
    "name": "solc",
    "version": "0.8.0+commit.c7dfd78e.Emscripten.clang"
  },
  "schemaVersion": "3.4.1",
  "updatedAt": "2021-06-13T11:02:28.643Z",
  "networkType": "ethereum",
  "devdoc": {
    "author": "Radoslav Dimitrov",
    "kind": "dev",
    "methods": {},
    "title": "MedikChain",
    "version": 1
  },
  "userdoc": {
    "kind": "user",
    "methods": {},
    "version": 1
  }
}