{
  "contractName": "MedikChain",
  "abi": [
    {
      "inputs": [],
      "stateMutability": "nonpayable",
      "type": "constructor"
    },
    {
      "anonymous": false,
      "inputs": [
        {
          "indexed": false,
          "internalType": "uint256",
          "name": "id",
          "type": "uint256"
        },
        {
          "indexed": false,
          "internalType": "address",
          "name": "patient",
          "type": "address"
        }
      ],
      "name": "MedicalRecordPublished",
      "type": "event"
    },
    {
      "inputs": [
        {
          "internalType": "address payable",
          "name": "_user",
          "type": "address"
        }
      ],
      "name": "grantAdminAccess",
      "outputs": [],
      "stateMutability": "payable",
      "type": "function",
      "payable": true
    },
    {
      "inputs": [
        {
          "internalType": "address payable",
          "name": "_user",
          "type": "address"
        }
      ],
      "name": "grantEditAccess",
      "outputs": [],
      "stateMutability": "payable",
      "type": "function",
      "payable": true
    },
    {
      "inputs": [],
      "name": "canEdit",
      "outputs": [
        {
          "internalType": "bool",
          "name": "",
          "type": "bool"
        }
      ],
      "stateMutability": "view",
      "type": "function",
      "constant": true
    },
    {
      "inputs": [],
      "name": "canGiveAccess",
      "outputs": [
        {
          "internalType": "bool",
          "name": "",
          "type": "bool"
        }
      ],
      "stateMutability": "view",
      "type": "function",
      "constant": true
    },
    {
      "inputs": [
        {
          "internalType": "address",
          "name": "_patient",
          "type": "address"
        },
        {
          "internalType": "address",
          "name": "_physician",
          "type": "address"
        },
        {
          "internalType": "string",
          "name": "_title",
          "type": "string"
        },
        {
          "internalType": "string",
          "name": "_description",
          "type": "string"
        },
        {
          "internalType": "address",
          "name": "_medicalCenter",
          "type": "address"
        },
        {
          "internalType": "string[]",
          "name": "_tags",
          "type": "string[]"
        },
        {
          "internalType": "string",
          "name": "_attachment",
          "type": "string"
        }
      ],
      "name": "addMedicalRecord",
      "outputs": [],
      "stateMutability": "nonpayable",
      "type": "function"
    },
    {
      "inputs": [
        {
          "internalType": "address",
          "name": "_patient",
          "type": "address"
        }
      ],
      "name": "getMedicalRecords",
      "outputs": [
        {
          "components": [
            {
              "internalType": "uint256",
              "name": "id",
              "type": "uint256"
            },
            {
              "internalType": "string",
              "name": "title",
              "type": "string"
            },
            {
              "internalType": "string",
              "name": "description",
              "type": "string"
            },
            {
              "internalType": "address",
              "name": "physician",
              "type": "address"
            },
            {
              "internalType": "address",
              "name": "patient",
              "type": "address"
            },
            {
              "internalType": "uint256",
              "name": "date",
              "type": "uint256"
            },
            {
              "internalType": "address",
              "name": "medicalCenter",
              "type": "address"
            },
            {
              "internalType": "string[]",
              "name": "tags",
              "type": "string[]"
            },
            {
              "internalType": "string",
              "name": "attachment",
              "type": "string"
            }
          ],
          "internalType": "struct MedikChain.MedicalRecord[]",
          "name": "",
          "type": "tuple[]"
        }
      ],
      "stateMutability": "view",
      "type": "function",
      "constant": true
    }
  ],
  "bytecode": "0x60806040526000805534801561001457600080fd5b50604051806040016040528060011515815260200160011515815250600160003373ffffffffffffffffffffffffffffffffffffffff1673ffffffffffffffffffffffffffffffffffffffff16815260200190815260200160002060008201518160000160006101000a81548160ff02191690831515021790555060208201518160000160016101000a81548160ff021916908315150217905550905050611b53806100c16000396000f3fe6080604052600436106100555760003560e01c806322b3127a1461005a5780633d1f6ec3146100765780634050cee51461009257806381beeb64146100bd578063afd8297c146100e8578063cbe207dc14610125575b600080fd5b610074600480360381019061006f91906112af565b61014e565b005b610090600480360381019061008b91906112af565b610330565b005b34801561009e57600080fd5b506100a76104b8565b6040516100b49190611734565b60405180910390f35b3480156100c957600080fd5b506100d261050f565b6040516100df9190611734565b60405180910390f35b3480156100f457600080fd5b5061010f600480360381019061010a9190611286565b610566565b60405161011c9190611712565b60405180910390f35b34801561013157600080fd5b5061014c600480360381019061014791906112d8565b610bc8565b005b600160003373ffffffffffffffffffffffffffffffffffffffff1673ffffffffffffffffffffffffffffffffffffffff16815260200190815260200160002060000160009054906101000a900460ff166101dd576040517f08c379a00000000000000000000000000000000000000000000000000000000081526004016101d49061176f565b60405180910390fd5b671bc16d674ec8000080341015610229576040517f08c379a00000000000000000000000000000000000000000000000000000000081526004016102209061174f565b60405180910390fd5b60018060008473ffffffffffffffffffffffffffffffffffffffff1673ffffffffffffffffffffffffffffffffffffffff16815260200190815260200160002060000160006101000a81548160ff02191690831515021790555060018060008473ffffffffffffffffffffffffffffffffffffffff1673ffffffffffffffffffffffffffffffffffffffff16815260200190815260200160002060000160016101000a81548160ff0219169083151502179055508173ffffffffffffffffffffffffffffffffffffffff166108fc671bc16d674ec800009081150290604051600060405180830381858888f1935050505015801561032b573d6000803e3d6000fd5b505050565b600160003373ffffffffffffffffffffffffffffffffffffffff1673ffffffffffffffffffffffffffffffffffffffff16815260200190815260200160002060000160009054906101000a900460ff166103bf576040517f08c379a00000000000000000000000000000000000000000000000000000000081526004016103b69061176f565b60405180910390fd5b670de0b6b3a76400008034101561040b576040517f08c379a00000000000000000000000000000000000000000000000000000000081526004016104029061174f565b60405180910390fd5b60018060008473ffffffffffffffffffffffffffffffffffffffff1673ffffffffffffffffffffffffffffffffffffffff16815260200190815260200160002060000160016101000a81548160ff0219169083151502179055508173ffffffffffffffffffffffffffffffffffffffff166108fc670de0b6b3a76400009081150290604051600060405180830381858888f193505050501580156104b3573d6000803e3d6000fd5b505050565b6000600160003373ffffffffffffffffffffffffffffffffffffffff1673ffffffffffffffffffffffffffffffffffffffff16815260200190815260200160002060000160009054906101000a900460ff16905090565b6000600160003373ffffffffffffffffffffffffffffffffffffffff1673ffffffffffffffffffffffffffffffffffffffff16815260200190815260200160002060000160019054906101000a900460ff16905090565b6060816000600160003373ffffffffffffffffffffffffffffffffffffffff1673ffffffffffffffffffffffffffffffffffffffff16815260200190815260200160002060000160009054906101000a900460ff1690506000600160003373ffffffffffffffffffffffffffffffffffffffff1673ffffffffffffffffffffffffffffffffffffffff16815260200190815260200160002060000160019054906101000a900460ff16905060008373ffffffffffffffffffffffffffffffffffffffff163373ffffffffffffffffffffffffffffffffffffffff16149050828061064d5750815b806106555750805b610694576040517f08c379a000000000000000000000000000000000000000000000000000000000815260040161068b9061176f565b60405180910390fd5b6000600260008873ffffffffffffffffffffffffffffffffffffffff1673ffffffffffffffffffffffffffffffffffffffff16815260200190815260200160002054905060008167ffffffffffffffff81111561071a577f4e487b7100000000000000000000000000000000000000000000000000000000600052604160045260246000fd5b60405190808252806020026020018201604052801561075357816020015b610740610f78565b8152602001906001900390816107385790505b50905060005b82811015610bb957600360008a73ffffffffffffffffffffffffffffffffffffffff1673ffffffffffffffffffffffffffffffffffffffff168152602001908152602001600020600082815260200190815260200160002060405180610120016040529081600082015481526020016001820180546107d7906119d6565b80601f0160208091040260200160405190810160405280929190818152602001828054610803906119d6565b80156108505780601f1061082557610100808354040283529160200191610850565b820191906000526020600020905b81548152906001019060200180831161083357829003601f168201915b50505050508152602001600282018054610869906119d6565b80601f0160208091040260200160405190810160405280929190818152602001828054610895906119d6565b80156108e25780601f106108b7576101008083540402835291602001916108e2565b820191906000526020600020905b8154815290600101906020018083116108c557829003601f168201915b505050505081526020016003820160009054906101000a900473ffffffffffffffffffffffffffffffffffffffff1673ffffffffffffffffffffffffffffffffffffffff1673ffffffffffffffffffffffffffffffffffffffff1681526020016004820160009054906101000a900473ffffffffffffffffffffffffffffffffffffffff1673ffffffffffffffffffffffffffffffffffffffff1673ffffffffffffffffffffffffffffffffffffffff168152602001600582015481526020016006820160009054906101000a900473ffffffffffffffffffffffffffffffffffffffff1673ffffffffffffffffffffffffffffffffffffffff1673ffffffffffffffffffffffffffffffffffffffff16815260200160078201805480602002602001604051908101604052809291908181526020016000905b82821015610ac8578382906000526020600020018054610a3b906119d6565b80601f0160208091040260200160405190810160405280929190818152602001828054610a67906119d6565b8015610ab45780601f10610a8957610100808354040283529160200191610ab4565b820191906000526020600020905b815481529060010190602001808311610a9757829003601f168201915b505050505081526020019060010190610a1c565b505050508152602001600882018054610ae0906119d6565b80601f0160208091040260200160405190810160405280929190818152602001828054610b0c906119d6565b8015610b595780601f10610b2e57610100808354040283529160200191610b59565b820191906000526020600020905b815481529060010190602001808311610b3c57829003601f168201915b505050505081525050828281518110610b9b577f4e487b7100000000000000000000000000000000000000000000000000000000600052603260045260246000fd5b60200260200101819052508080610bb190611a08565b915050610759565b50809650505050505050919050565b600160003373ffffffffffffffffffffffffffffffffffffffff1673ffffffffffffffffffffffffffffffffffffffff16815260200190815260200160002060000160019054906101000a900460ff16610c57576040517f08c379a0000000000000000000000000000000000000000000000000000000008152600401610c4e9061176f565b60405180910390fd5b6000600260008973ffffffffffffffffffffffffffffffffffffffff1673ffffffffffffffffffffffffffffffffffffffff16815260200190815260200160002054905060405180610120016040528060005481526020018781526020018681526020018873ffffffffffffffffffffffffffffffffffffffff1681526020018973ffffffffffffffffffffffffffffffffffffffff1681526020014281526020018573ffffffffffffffffffffffffffffffffffffffff16815260200184815260200183815250600360008a73ffffffffffffffffffffffffffffffffffffffff1673ffffffffffffffffffffffffffffffffffffffff1681526020019081526020016000206000838152602001908152602001600020600082015181600001556020820151816001019080519060200190610d95929190611006565b506040820151816002019080519060200190610db2929190611006565b5060608201518160030160006101000a81548173ffffffffffffffffffffffffffffffffffffffff021916908373ffffffffffffffffffffffffffffffffffffffff16021790555060808201518160040160006101000a81548173ffffffffffffffffffffffffffffffffffffffff021916908373ffffffffffffffffffffffffffffffffffffffff16021790555060a0820151816005015560c08201518160060160006101000a81548173ffffffffffffffffffffffffffffffffffffffff021916908373ffffffffffffffffffffffffffffffffffffffff16021790555060e0820151816007019080519060200190610eae92919061108c565b50610100820151816008019080519060200190610ecc929190611006565b50905050600181610edd91906118e4565b600260008a73ffffffffffffffffffffffffffffffffffffffff1673ffffffffffffffffffffffffffffffffffffffff168152602001908152602001600020819055507f88919c45d9d7dd916e0367a3d90ea5059af1eb091c5a047cd5258938ea9f2bac600080815480929190610f5390611a08565b9190505589604051610f6692919061178f565b60405180910390a15050505050505050565b604051806101200160405280600081526020016060815260200160608152602001600073ffffffffffffffffffffffffffffffffffffffff168152602001600073ffffffffffffffffffffffffffffffffffffffff16815260200160008152602001600073ffffffffffffffffffffffffffffffffffffffff16815260200160608152602001606081525090565b828054611012906119d6565b90600052602060002090601f016020900481019282611034576000855561107b565b82601f1061104d57805160ff191683800117855561107b565b8280016001018555821561107b579182015b8281111561107a57825182559160200191906001019061105f565b5b50905061108891906110ec565b5090565b8280548282559060005260206000209081019282156110db579160200282015b828111156110da5782518290805190602001906110ca929190611006565b50916020019190600101906110ac565b5b5090506110e89190611109565b5090565b5b808211156111055760008160009055506001016110ed565b5090565b5b808211156111295760008181611120919061112d565b5060010161110a565b5090565b508054611139906119d6565b6000825580601f1061114b575061116a565b601f01602090049060005260206000209081019061116991906110ec565b5b50565b600061118061117b846117e9565b6117b8565b9050808382526020820190508260005b858110156111c057813585016111a6888261125c565b845260208401935060208301925050600181019050611190565b5050509392505050565b60006111dd6111d884611815565b6117b8565b9050828152602081018484840111156111f557600080fd5b611200848285611994565b509392505050565b60008135905061121781611aef565b92915050565b60008135905061122c81611b06565b92915050565b600082601f83011261124357600080fd5b813561125384826020860161116d565b91505092915050565b600082601f83011261126d57600080fd5b813561127d8482602086016111ca565b91505092915050565b60006020828403121561129857600080fd5b60006112a684828501611208565b91505092915050565b6000602082840312156112c157600080fd5b60006112cf8482850161121d565b91505092915050565b600080600080600080600060e0888a0312156112f357600080fd5b60006113018a828b01611208565b97505060206113128a828b01611208565b965050604088013567ffffffffffffffff81111561132f57600080fd5b61133b8a828b0161125c565b955050606088013567ffffffffffffffff81111561135857600080fd5b6113648a828b0161125c565b94505060806113758a828b01611208565b93505060a088013567ffffffffffffffff81111561139257600080fd5b61139e8a828b01611232565b92505060c088013567ffffffffffffffff8111156113bb57600080fd5b6113c78a828b0161125c565b91505092959891949750929550565b60006113e28383611515565b905092915050565b60006113f6838361161a565b905092915050565b6114078161193a565b82525050565b6114168161193a565b82525050565b600061142782611865565b61143181856118a0565b93508360208202850161144385611845565b8060005b8581101561147f578484038952815161146085826113d6565b945061146b83611886565b925060208a01995050600181019050611447565b50829750879550505050505092915050565b600061149c82611870565b6114a681856118b1565b9350836020820285016114b885611855565b8060005b858110156114f457848403895281516114d585826113ea565b94506114e083611893565b925060208a019950506001810190506114bc565b50829750879550505050505092915050565b61150f8161195e565b82525050565b60006115208261187b565b61152a81856118c2565b935061153a8185602086016119a3565b61154381611ade565b840191505092915050565b600061155b6023836118d3565b91507f5472616e73616374696f6e2076616c7565206973206e6f74207375666669636960008301527f656e7400000000000000000000000000000000000000000000000000000000006020830152604082019050919050565b60006115c16040836118d3565b91507f54686973207573657220686173206e6f2073756666696369656e74206163636560008301527f73732072696768747320746f20706572666f726d207468697320616374696f6e6020830152604082019050919050565b60006101208301600083015161163360008601826116f4565b506020830151848203602086015261164b8282611515565b915050604083015184820360408601526116658282611515565b915050606083015161167a60608601826113fe565b50608083015161168d60808601826113fe565b5060a08301516116a060a08601826116f4565b5060c08301516116b360c08601826113fe565b5060e083015184820360e08601526116cb828261141c565b9150506101008301518482036101008601526116e78282611515565b9150508091505092915050565b6116fd8161198a565b82525050565b61170c8161198a565b82525050565b6000602082019050818103600083015261172c8184611491565b905092915050565b60006020820190506117496000830184611506565b92915050565b600060208201905081810360008301526117688161154e565b9050919050565b60006020820190508181036000830152611788816115b4565b9050919050565b60006040820190506117a46000830185611703565b6117b1602083018461140d565b9392505050565b6000604051905081810181811067ffffffffffffffff821117156117df576117de611aaf565b5b8060405250919050565b600067ffffffffffffffff82111561180457611803611aaf565b5b602082029050602081019050919050565b600067ffffffffffffffff8211156118305761182f611aaf565b5b601f19601f8301169050602081019050919050565b6000819050602082019050919050565b6000819050602082019050919050565b600081519050919050565b600081519050919050565b600081519050919050565b6000602082019050919050565b6000602082019050919050565b600082825260208201905092915050565b600082825260208201905092915050565b600082825260208201905092915050565b600082825260208201905092915050565b60006118ef8261198a565b91506118fa8361198a565b9250827fffffffffffffffffffffffffffffffffffffffffffffffffffffffffffffffff0382111561192f5761192e611a51565b5b828201905092915050565b60006119458261196a565b9050919050565b60006119578261196a565b9050919050565b60008115159050919050565b600073ffffffffffffffffffffffffffffffffffffffff82169050919050565b6000819050919050565b82818337600083830152505050565b60005b838110156119c15780820151818401526020810190506119a6565b838111156119d0576000848401525b50505050565b600060028204905060018216806119ee57607f821691505b60208210811415611a0257611a01611a80565b5b50919050565b6000611a138261198a565b91507fffffffffffffffffffffffffffffffffffffffffffffffffffffffffffffffff821415611a4657611a45611a51565b5b600182019050919050565b7f4e487b7100000000000000000000000000000000000000000000000000000000600052601160045260246000fd5b7f4e487b7100000000000000000000000000000000000000000000000000000000600052602260045260246000fd5b7f4e487b7100000000000000000000000000000000000000000000000000000000600052604160045260246000fd5b6000601f19601f8301169050919050565b611af88161193a565b8114611b0357600080fd5b50565b611b0f8161194c565b8114611b1a57600080fd5b5056fea2646970667358221220cfd04411b63c5b626a5581f1b9877a0e725fd66460a18beb431840a2023838b364736f6c63430008000033",
  "immutableReferences": {},
  "source": "// SPDX-License-Identifier: UNLICENSED\npragma solidity ^0.8.0;\n\n/// @title MedikChain\n/// @author Radoslav Dimitrov\ncontract MedikChain {\n\n    struct MedicalRecord {\n        uint id;\n        string title;\n        string description;\n        address physician;\n        address patient;\n        uint date;\n        address medicalCenter;\n        string[] tags;\n        string attachment;\n    }\n\n    struct UserRole {\n        bool isAdmin; // Admins can grant edit access and can also edit\n        bool isEditor; // Editors can push changes to the blockchain\n    }\n\n    event MedicalRecordPublished (\n        uint id,\n        address patient\n    );\n\n    uint private recordsCount = 0;\n\n    // keeps mapping between user (their address) and their access rights\n    mapping(address => UserRole) private userRoles;\n\n    // keeps the mapping between users and the id generator for their records\n    mapping(address => uint) private recordsForPatients;\n\n    // @notice this mapping is the main structure of data for this contract\n    // it maps the patient address to a nested mapping of ids => records of data\n    mapping(address => mapping(uint => MedicalRecord)) private patientRecords;\n\n    constructor() {\n        // initially, only the creator has access rights\n        userRoles[msg.sender] = UserRole(true, true);\n    }\n\n    modifier onlyEditors() {\n        require(userRoles[msg.sender].isEditor, \"This user has no sufficient access rights to perform this action\");\n        _;\n    }\n\n    modifier onlyAdmins() {\n        require(userRoles[msg.sender].isAdmin, \"This user has no sufficient access rights to perform this action\");\n        _;\n    }\n\n    modifier onlyViewer(address _patient) {\n        bool isAdmin = userRoles[msg.sender].isAdmin;\n        bool isEditor = userRoles[msg.sender].isEditor;\n        bool isOwner = (msg.sender == _patient);\n        require(isAdmin || isEditor || isOwner, \"This user has no sufficient access rights to perform this action\");\n        _;\n    }\n\n    modifier expectPaymentAmount(uint paymentAmount) {\n        require(msg.value >= paymentAmount, \"Transaction value is not sufficient\");\n        _;\n    }\n\n    // TODO consider paying to the new admin, because he/she will need ethers for gas fees\n    function grantAdminAccess(address payable _user) public payable onlyAdmins expectPaymentAmount(2 ether) {\n        userRoles[_user].isAdmin = true;\n        userRoles[_user].isEditor = true;\n        _user.transfer(2 ether);\n    }\n\n    // TODO consider paying to the new editor, because he/she will need ethers for gas fees\n    function grantEditAccess(address payable _user) public payable onlyAdmins expectPaymentAmount(1 ether) {\n        userRoles[_user].isEditor = true;\n        _user.transfer(1 ether);\n    }\n\n    function canEdit() public view returns(bool) {\n        return userRoles[msg.sender].isEditor;\n    }\n\n    function canGiveAccess() public view returns(bool) {\n        return userRoles[msg.sender].isAdmin;\n    }\n\n    function addMedicalRecord(address _patient, address _physician, string memory _title, string memory _description,\n                              address _medicalCenter, string[] memory _tags, string memory _attachment) public onlyEditors {\n        uint recordsCountForUser = recordsForPatients[_patient];\n        patientRecords[_patient][recordsCountForUser] = MedicalRecord(recordsCount, _title, _description, _physician,\n                                                                      _patient, block.timestamp, _medicalCenter, _tags,\n                                                                      _attachment);\n        recordsForPatients[_patient] = recordsCountForUser + 1;\n        emit MedicalRecordPublished(recordsCount++, _patient);\n    }\n\n\n    function getMedicalRecords(address _patient) public onlyViewer(_patient) view returns (MedicalRecord[] memory) {\n        uint recordsCountForUser = recordsForPatients[_patient];\n        MedicalRecord[] memory result = new MedicalRecord[](recordsCountForUser);\n        for (uint i = 0; i < recordsCountForUser; i++) {\n            result[i] = patientRecords[_patient][i];\n        }\n        return result;\n    }\n}",
  "sourcePath": "/Users/i530753/Desktop/medikchain/medikchain/contracts/MedikChain.sol",
  "compiler": {
    "name": "solc",
    "version": "0.8.0+commit.c7dfd78e.Emscripten.clang"
  },
  "schemaVersion": "3.4.1",
  "updatedAt": "2021-06-06T15:26:21.891Z",
  "networkType": "ethereum",
  "devdoc": {
    "author": "Radoslav Dimitrov",
    "kind": "dev",
    "methods": {},
    "title": "MedikChain",
    "version": 1
  },
  "userdoc": {
    "kind": "user",
    "methods": {},
    "version": 1
  }
}