{
  "contractName": "MedikChain",
  "abi": [
    {
      "inputs": [],
      "stateMutability": "nonpayable",
      "type": "constructor"
    },
    {
      "anonymous": false,
      "inputs": [
        {
          "indexed": false,
          "internalType": "uint256",
          "name": "id",
          "type": "uint256"
        },
        {
          "indexed": false,
          "internalType": "address",
          "name": "patient",
          "type": "address"
        }
      ],
      "name": "MedicalRecordPublished",
      "type": "event"
    },
    {
      "anonymous": false,
      "inputs": [
        {
          "indexed": false,
          "internalType": "address",
          "name": "patient",
          "type": "address"
        }
      ],
      "name": "PatientRegistered",
      "type": "event"
    },
    {
      "inputs": [
        {
          "internalType": "address payable",
          "name": "_user",
          "type": "address"
        }
      ],
      "name": "grantAdminAccess",
      "outputs": [],
      "stateMutability": "payable",
      "type": "function",
      "payable": true
    },
    {
      "inputs": [
        {
          "internalType": "address payable",
          "name": "_user",
          "type": "address"
        }
      ],
      "name": "grantEditAccess",
      "outputs": [],
      "stateMutability": "payable",
      "type": "function",
      "payable": true
    },
    {
      "inputs": [],
      "name": "canEdit",
      "outputs": [
        {
          "internalType": "bool",
          "name": "",
          "type": "bool"
        }
      ],
      "stateMutability": "view",
      "type": "function",
      "constant": true
    },
    {
      "inputs": [],
      "name": "canGiveAccess",
      "outputs": [
        {
          "internalType": "bool",
          "name": "",
          "type": "bool"
        }
      ],
      "stateMutability": "view",
      "type": "function",
      "constant": true
    },
    {
      "inputs": [
        {
          "internalType": "address",
          "name": "_patient",
          "type": "address"
        },
        {
          "internalType": "address",
          "name": "_physician",
          "type": "address"
        },
        {
          "internalType": "string",
          "name": "_title",
          "type": "string"
        },
        {
          "internalType": "string",
          "name": "_description",
          "type": "string"
        },
        {
          "internalType": "address",
          "name": "_medicalCenter",
          "type": "address"
        },
        {
          "internalType": "string[]",
          "name": "_tags",
          "type": "string[]"
        },
        {
          "internalType": "string",
          "name": "_attachment",
          "type": "string"
        }
      ],
      "name": "addMedicalRecord",
      "outputs": [],
      "stateMutability": "nonpayable",
      "type": "function"
    },
    {
      "inputs": [
        {
          "internalType": "address",
          "name": "_patient",
          "type": "address"
        }
      ],
      "name": "getMedicalRecords",
      "outputs": [
        {
          "components": [
            {
              "internalType": "uint256",
              "name": "id",
              "type": "uint256"
            },
            {
              "internalType": "string",
              "name": "title",
              "type": "string"
            },
            {
              "internalType": "string",
              "name": "description",
              "type": "string"
            },
            {
              "internalType": "address",
              "name": "physician",
              "type": "address"
            },
            {
              "internalType": "address",
              "name": "patient",
              "type": "address"
            },
            {
              "internalType": "uint256",
              "name": "date",
              "type": "uint256"
            },
            {
              "internalType": "address",
              "name": "medicalCenter",
              "type": "address"
            },
            {
              "internalType": "string[]",
              "name": "tags",
              "type": "string[]"
            },
            {
              "internalType": "string",
              "name": "attachment",
              "type": "string"
            }
          ],
          "internalType": "struct MedikChain.MedicalRecord[]",
          "name": "",
          "type": "tuple[]"
        }
      ],
      "stateMutability": "view",
      "type": "function",
      "constant": true
    },
    {
      "inputs": [],
      "name": "getPatientsInfo",
      "outputs": [
        {
          "components": [
            {
              "internalType": "address",
              "name": "id",
              "type": "address"
            },
            {
              "internalType": "string",
              "name": "name",
              "type": "string"
            },
            {
              "internalType": "string",
              "name": "birthday",
              "type": "string"
            },
            {
              "internalType": "string",
              "name": "gender",
              "type": "string"
            },
            {
              "internalType": "bool",
              "name": "registered",
              "type": "bool"
            }
          ],
          "internalType": "struct MedikChain.PatientInfo[]",
          "name": "",
          "type": "tuple[]"
        }
      ],
      "stateMutability": "view",
      "type": "function",
      "constant": true
    },
    {
      "inputs": [],
      "name": "isRegistered",
      "outputs": [
        {
          "internalType": "bool",
          "name": "",
          "type": "bool"
        }
      ],
      "stateMutability": "view",
      "type": "function",
      "constant": true
    },
    {
      "inputs": [
        {
          "internalType": "string",
          "name": "_name",
          "type": "string"
        },
        {
          "internalType": "string",
          "name": "_birthday",
          "type": "string"
        },
        {
          "internalType": "string",
          "name": "_gender",
          "type": "string"
        }
      ],
      "name": "registerAsPatient",
      "outputs": [],
      "stateMutability": "nonpayable",
      "type": "function"
    }
  ],
  "bytecode": "0x60806040526000805534801561001457600080fd5b50604051806040016040528060011515815260200160011515815250600160003373ffffffffffffffffffffffffffffffffffffffff1673ffffffffffffffffffffffffffffffffffffffff16815260200190815260200160002060008201518160000160006101000a81548160ff02191690831515021790555060208201518160000160016101000a81548160ff0219169083151502179055509050506125c6806100c16000396000f3fe6080604052600436106100865760003560e01c80634050cee5116100595780634050cee51461011757806377bd18501461014257806381beeb641461016d578063afd8297c14610198578063cbe207dc146101d557610086565b80631822faa31461008b57806322366844146100b457806322b3127a146100df5780633d1f6ec3146100fb575b600080fd5b34801561009757600080fd5b506100b260048036038101906100ad9190611bc0565b6101fe565b005b3480156100c057600080fd5b506100c9610425565b6040516100d6919061214e565b60405180910390f35b6100f960048036038101906100f49190611a99565b61047c565b005b61011560048036038101906101109190611a99565b61065e565b005b34801561012357600080fd5b5061012c6107e6565b604051610139919061214e565b60405180910390f35b34801561014e57600080fd5b5061015761083d565b604051610164919061212c565b60405180910390f35b34801561017957600080fd5b50610182610c9c565b60405161018f919061214e565b60405180910390f35b3480156101a457600080fd5b506101bf60048036038101906101ba9190611a70565b610cf3565b6040516101cc919061210a565b60405180910390f35b3480156101e157600080fd5b506101fc60048036038101906101f79190611ac2565b61136b565b005b610206610425565b15610246576040517f08c379a000000000000000000000000000000000000000000000000000000000815260040161023d90612189565b60405180910390fd5b6040518060a001604052803373ffffffffffffffffffffffffffffffffffffffff16815260200184815260200183815260200182815260200160011515815250600560003373ffffffffffffffffffffffffffffffffffffffff1673ffffffffffffffffffffffffffffffffffffffff16815260200190815260200160002060008201518160000160006101000a81548173ffffffffffffffffffffffffffffffffffffffff021916908373ffffffffffffffffffffffffffffffffffffffff160217905550602082015181600101908051906020019061032892919061171b565b50604082015181600201908051906020019061034592919061171b565b50606082015181600301908051906020019061036292919061171b565b5060808201518160040160006101000a81548160ff0219169083151502179055509050506004339080600181540180825580915050600190039060005260206000200160009091909190916101000a81548173ffffffffffffffffffffffffffffffffffffffff021916908373ffffffffffffffffffffffffffffffffffffffff1602179055507fc9fa2003fca4ce0dfc8cb0deae32266b715536df6685365b05b5be96ede8e49c3360405161041891906120ef565b60405180910390a1505050565b6000600560003373ffffffffffffffffffffffffffffffffffffffff1673ffffffffffffffffffffffffffffffffffffffff16815260200190815260200160002060040160009054906101000a900460ff16905090565b600160003373ffffffffffffffffffffffffffffffffffffffff1673ffffffffffffffffffffffffffffffffffffffff16815260200190815260200160002060000160009054906101000a900460ff1661050b576040517f08c379a0000000000000000000000000000000000000000000000000000000008152600401610502906121a9565b60405180910390fd5b671bc16d674ec8000080341015610557576040517f08c379a000000000000000000000000000000000000000000000000000000000815260040161054e90612169565b60405180910390fd5b60018060008473ffffffffffffffffffffffffffffffffffffffff1673ffffffffffffffffffffffffffffffffffffffff16815260200190815260200160002060000160006101000a81548160ff02191690831515021790555060018060008473ffffffffffffffffffffffffffffffffffffffff1673ffffffffffffffffffffffffffffffffffffffff16815260200190815260200160002060000160016101000a81548160ff0219169083151502179055508173ffffffffffffffffffffffffffffffffffffffff166108fc671bc16d674ec800009081150290604051600060405180830381858888f19350505050158015610659573d6000803e3d6000fd5b505050565b600160003373ffffffffffffffffffffffffffffffffffffffff1673ffffffffffffffffffffffffffffffffffffffff16815260200190815260200160002060000160009054906101000a900460ff166106ed576040517f08c379a00000000000000000000000000000000000000000000000000000000081526004016106e4906121a9565b60405180910390fd5b670de0b6b3a764000080341015610739576040517f08c379a000000000000000000000000000000000000000000000000000000000815260040161073090612169565b60405180910390fd5b60018060008473ffffffffffffffffffffffffffffffffffffffff1673ffffffffffffffffffffffffffffffffffffffff16815260200190815260200160002060000160016101000a81548160ff0219169083151502179055508173ffffffffffffffffffffffffffffffffffffffff166108fc670de0b6b3a76400009081150290604051600060405180830381858888f193505050501580156107e1573d6000803e3d6000fd5b505050565b6000600160003373ffffffffffffffffffffffffffffffffffffffff1673ffffffffffffffffffffffffffffffffffffffff16815260200190815260200160002060000160009054906101000a900460ff16905090565b6060600160003373ffffffffffffffffffffffffffffffffffffffff1673ffffffffffffffffffffffffffffffffffffffff16815260200190815260200160002060000160019054906101000a900460ff166108ce576040517f08c379a00000000000000000000000000000000000000000000000000000000081526004016108c5906121a9565b60405180910390fd5b6000600480549050905060008167ffffffffffffffff81111561091a577f4e487b7100000000000000000000000000000000000000000000000000000000600052604160045260246000fd5b60405190808252806020026020018201604052801561095357816020015b6109406117a1565b8152602001906001900390816109385790505b50905060005b82811015610c935760006004828154811061099d577f4e487b7100000000000000000000000000000000000000000000000000000000600052603260045260246000fd5b9060005260206000200160009054906101000a900473ffffffffffffffffffffffffffffffffffffffff169050600560008273ffffffffffffffffffffffffffffffffffffffff1673ffffffffffffffffffffffffffffffffffffffff1681526020019081526020016000206040518060a00160405290816000820160009054906101000a900473ffffffffffffffffffffffffffffffffffffffff1673ffffffffffffffffffffffffffffffffffffffff1673ffffffffffffffffffffffffffffffffffffffff168152602001600182018054610a7a90612449565b80601f0160208091040260200160405190810160405280929190818152602001828054610aa690612449565b8015610af35780601f10610ac857610100808354040283529160200191610af3565b820191906000526020600020905b815481529060010190602001808311610ad657829003601f168201915b50505050508152602001600282018054610b0c90612449565b80601f0160208091040260200160405190810160405280929190818152602001828054610b3890612449565b8015610b855780601f10610b5a57610100808354040283529160200191610b85565b820191906000526020600020905b815481529060010190602001808311610b6857829003601f168201915b50505050508152602001600382018054610b9e90612449565b80601f0160208091040260200160405190810160405280929190818152602001828054610bca90612449565b8015610c175780601f10610bec57610100808354040283529160200191610c17565b820191906000526020600020905b815481529060010190602001808311610bfa57829003601f168201915b505050505081526020016004820160009054906101000a900460ff161515151581525050838381518110610c74577f4e487b7100000000000000000000000000000000000000000000000000000000600052603260045260246000fd5b6020026020010181905250508080610c8b9061247b565b915050610959565b50809250505090565b6000600160003373ffffffffffffffffffffffffffffffffffffffff1673ffffffffffffffffffffffffffffffffffffffff16815260200190815260200160002060000160019054906101000a900460ff16905090565b6060816000600160003373ffffffffffffffffffffffffffffffffffffffff1673ffffffffffffffffffffffffffffffffffffffff16815260200190815260200160002060000160009054906101000a900460ff1690506000600160003373ffffffffffffffffffffffffffffffffffffffff1673ffffffffffffffffffffffffffffffffffffffff16815260200190815260200160002060000160019054906101000a900460ff16905060008373ffffffffffffffffffffffffffffffffffffffff163373ffffffffffffffffffffffffffffffffffffffff161490506000610ddb610425565b90508380610de65750825b80610df75750818015610df65750805b5b610e36576040517f08c379a0000000000000000000000000000000000000000000000000000000008152600401610e2d906121a9565b60405180910390fd5b6000600260008973ffffffffffffffffffffffffffffffffffffffff1673ffffffffffffffffffffffffffffffffffffffff16815260200190815260200160002054905060008167ffffffffffffffff811115610ebc577f4e487b7100000000000000000000000000000000000000000000000000000000600052604160045260246000fd5b604051908082528060200260200182016040528015610ef557816020015b610ee26117e8565b815260200190600190039081610eda5790505b50905060005b8281101561135b57600360008b73ffffffffffffffffffffffffffffffffffffffff1673ffffffffffffffffffffffffffffffffffffffff16815260200190815260200160002060008281526020019081526020016000206040518061012001604052908160008201548152602001600182018054610f7990612449565b80601f0160208091040260200160405190810160405280929190818152602001828054610fa590612449565b8015610ff25780601f10610fc757610100808354040283529160200191610ff2565b820191906000526020600020905b815481529060010190602001808311610fd557829003601f168201915b5050505050815260200160028201805461100b90612449565b80601f016020809104026020016040519081016040528092919081815260200182805461103790612449565b80156110845780601f1061105957610100808354040283529160200191611084565b820191906000526020600020905b81548152906001019060200180831161106757829003601f168201915b505050505081526020016003820160009054906101000a900473ffffffffffffffffffffffffffffffffffffffff1673ffffffffffffffffffffffffffffffffffffffff1673ffffffffffffffffffffffffffffffffffffffff1681526020016004820160009054906101000a900473ffffffffffffffffffffffffffffffffffffffff1673ffffffffffffffffffffffffffffffffffffffff1673ffffffffffffffffffffffffffffffffffffffff168152602001600582015481526020016006820160009054906101000a900473ffffffffffffffffffffffffffffffffffffffff1673ffffffffffffffffffffffffffffffffffffffff1673ffffffffffffffffffffffffffffffffffffffff16815260200160078201805480602002602001604051908101604052809291908181526020016000905b8282101561126a5783829060005260206000200180546111dd90612449565b80601f016020809104026020016040519081016040528092919081815260200182805461120990612449565b80156112565780601f1061122b57610100808354040283529160200191611256565b820191906000526020600020905b81548152906001019060200180831161123957829003601f168201915b5050505050815260200190600101906111be565b50505050815260200160088201805461128290612449565b80601f01602080910402602001604051908101604052809291908181526020018280546112ae90612449565b80156112fb5780601f106112d0576101008083540402835291602001916112fb565b820191906000526020600020905b8154815290600101906020018083116112de57829003601f168201915b50505050508152505082828151811061133d577f4e487b7100000000000000000000000000000000000000000000000000000000600052603260045260246000fd5b602002602001018190525080806113539061247b565b915050610efb565b5080975050505050505050919050565b600160003373ffffffffffffffffffffffffffffffffffffffff1673ffffffffffffffffffffffffffffffffffffffff16815260200190815260200160002060000160019054906101000a900460ff166113fa576040517f08c379a00000000000000000000000000000000000000000000000000000000081526004016113f1906121a9565b60405180910390fd5b6000600260008973ffffffffffffffffffffffffffffffffffffffff1673ffffffffffffffffffffffffffffffffffffffff16815260200190815260200160002054905060405180610120016040528060005481526020018781526020018681526020018873ffffffffffffffffffffffffffffffffffffffff1681526020018973ffffffffffffffffffffffffffffffffffffffff1681526020014281526020018573ffffffffffffffffffffffffffffffffffffffff16815260200184815260200183815250600360008a73ffffffffffffffffffffffffffffffffffffffff1673ffffffffffffffffffffffffffffffffffffffff168152602001908152602001600020600083815260200190815260200160002060008201518160000155602082015181600101908051906020019061153892919061171b565b50604082015181600201908051906020019061155592919061171b565b5060608201518160030160006101000a81548173ffffffffffffffffffffffffffffffffffffffff021916908373ffffffffffffffffffffffffffffffffffffffff16021790555060808201518160040160006101000a81548173ffffffffffffffffffffffffffffffffffffffff021916908373ffffffffffffffffffffffffffffffffffffffff16021790555060a0820151816005015560c08201518160060160006101000a81548173ffffffffffffffffffffffffffffffffffffffff021916908373ffffffffffffffffffffffffffffffffffffffff16021790555060e0820151816007019080519060200190611651929190611876565b5061010082015181600801908051906020019061166f92919061171b565b509050506001816116809190612357565b600260008a73ffffffffffffffffffffffffffffffffffffffff1673ffffffffffffffffffffffffffffffffffffffff168152602001908152602001600020819055507f88919c45d9d7dd916e0367a3d90ea5059af1eb091c5a047cd5258938ea9f2bac6000808154809291906116f69061247b565b91905055896040516117099291906121c9565b60405180910390a15050505050505050565b82805461172790612449565b90600052602060002090601f0160209004810192826117495760008555611790565b82601f1061176257805160ff1916838001178555611790565b82800160010185558215611790579182015b8281111561178f578251825591602001919060010190611774565b5b50905061179d91906118d6565b5090565b6040518060a00160405280600073ffffffffffffffffffffffffffffffffffffffff1681526020016060815260200160608152602001606081526020016000151581525090565b604051806101200160405280600081526020016060815260200160608152602001600073ffffffffffffffffffffffffffffffffffffffff168152602001600073ffffffffffffffffffffffffffffffffffffffff16815260200160008152602001600073ffffffffffffffffffffffffffffffffffffffff16815260200160608152602001606081525090565b8280548282559060005260206000209081019282156118c5579160200282015b828111156118c45782518290805190602001906118b492919061171b565b5091602001919060010190611896565b5b5090506118d291906118f3565b5090565b5b808211156118ef5760008160009055506001016118d7565b5090565b5b80821115611913576000818161190a9190611917565b506001016118f4565b5090565b50805461192390612449565b6000825580601f106119355750611954565b601f01602090049060005260206000209081019061195391906118d6565b5b50565b600061196a61196584612223565b6121f2565b9050808382526020820190508260005b858110156119aa57813585016119908882611a46565b84526020840193506020830192505060018101905061197a565b5050509392505050565b60006119c76119c28461224f565b6121f2565b9050828152602081018484840111156119df57600080fd5b6119ea848285612407565b509392505050565b600081359050611a0181612562565b92915050565b600081359050611a1681612579565b92915050565b600082601f830112611a2d57600080fd5b8135611a3d848260208601611957565b91505092915050565b600082601f830112611a5757600080fd5b8135611a678482602086016119b4565b91505092915050565b600060208284031215611a8257600080fd5b6000611a90848285016119f2565b91505092915050565b600060208284031215611aab57600080fd5b6000611ab984828501611a07565b91505092915050565b600080600080600080600060e0888a031215611add57600080fd5b6000611aeb8a828b016119f2565b9750506020611afc8a828b016119f2565b965050604088013567ffffffffffffffff811115611b1957600080fd5b611b258a828b01611a46565b955050606088013567ffffffffffffffff811115611b4257600080fd5b611b4e8a828b01611a46565b9450506080611b5f8a828b016119f2565b93505060a088013567ffffffffffffffff811115611b7c57600080fd5b611b888a828b01611a1c565b92505060c088013567ffffffffffffffff811115611ba557600080fd5b611bb18a828b01611a46565b91505092959891949750929550565b600080600060608486031215611bd557600080fd5b600084013567ffffffffffffffff811115611bef57600080fd5b611bfb86828701611a46565b935050602084013567ffffffffffffffff811115611c1857600080fd5b611c2486828701611a46565b925050604084013567ffffffffffffffff811115611c4157600080fd5b611c4d86828701611a46565b9150509250925092565b6000611c638383611e2e565b905092915050565b6000611c778383611f73565b905092915050565b6000611c8b838361204d565b905092915050565b611c9c816123ad565b82525050565b611cab816123ad565b82525050565b6000611cbc826122af565b611cc68185612302565b935083602082028501611cd88561227f565b8060005b85811015611d145784840389528151611cf58582611c57565b9450611d00836122db565b925060208a01995050600181019050611cdc565b50829750879550505050505092915050565b6000611d31826122ba565b611d3b8185612313565b935083602082028501611d4d8561228f565b8060005b85811015611d895784840389528151611d6a8582611c6b565b9450611d75836122e8565b925060208a01995050600181019050611d51565b50829750879550505050505092915050565b6000611da6826122c5565b611db08185612324565b935083602082028501611dc28561229f565b8060005b85811015611dfe5784840389528151611ddf8582611c7f565b9450611dea836122f5565b925060208a01995050600181019050611dc6565b50829750879550505050505092915050565b611e19816123d1565b82525050565b611e28816123d1565b82525050565b6000611e39826122d0565b611e438185612335565b9350611e53818560208601612416565b611e5c81612551565b840191505092915050565b6000611e74602383612346565b91507f5472616e73616374696f6e2076616c7565206973206e6f74207375666669636960008301527f656e7400000000000000000000000000000000000000000000000000000000006020830152604082019050919050565b6000611eda601d83612346565b91507f50617469656e7420697320616c726561647920726567697374657265640000006000830152602082019050919050565b6000611f1a604083612346565b91507f54686973207573657220686173206e6f2073756666696369656e74206163636560008301527f73732072696768747320746f20706572666f726d207468697320616374696f6e6020830152604082019050919050565b600061012083016000830151611f8c60008601826120d1565b5060208301518482036020860152611fa48282611e2e565b91505060408301518482036040860152611fbe8282611e2e565b9150506060830151611fd36060860182611c93565b506080830151611fe66080860182611c93565b5060a0830151611ff960a08601826120d1565b5060c083015161200c60c0860182611c93565b5060e083015184820360e08601526120248282611cb1565b9150506101008301518482036101008601526120408282611e2e565b9150508091505092915050565b600060a0830160008301516120656000860182611c93565b506020830151848203602086015261207d8282611e2e565b915050604083015184820360408601526120978282611e2e565b915050606083015184820360608601526120b18282611e2e565b91505060808301516120c66080860182611e10565b508091505092915050565b6120da816123fd565b82525050565b6120e9816123fd565b82525050565b60006020820190506121046000830184611ca2565b92915050565b600060208201905081810360008301526121248184611d26565b905092915050565b600060208201905081810360008301526121468184611d9b565b905092915050565b60006020820190506121636000830184611e1f565b92915050565b6000602082019050818103600083015261218281611e67565b9050919050565b600060208201905081810360008301526121a281611ecd565b9050919050565b600060208201905081810360008301526121c281611f0d565b9050919050565b60006040820190506121de60008301856120e0565b6121eb6020830184611ca2565b9392505050565b6000604051905081810181811067ffffffffffffffff8211171561221957612218612522565b5b8060405250919050565b600067ffffffffffffffff82111561223e5761223d612522565b5b602082029050602081019050919050565b600067ffffffffffffffff82111561226a57612269612522565b5b601f19601f8301169050602081019050919050565b6000819050602082019050919050565b6000819050602082019050919050565b6000819050602082019050919050565b600081519050919050565b600081519050919050565b600081519050919050565b600081519050919050565b6000602082019050919050565b6000602082019050919050565b6000602082019050919050565b600082825260208201905092915050565b600082825260208201905092915050565b600082825260208201905092915050565b600082825260208201905092915050565b600082825260208201905092915050565b6000612362826123fd565b915061236d836123fd565b9250827fffffffffffffffffffffffffffffffffffffffffffffffffffffffffffffffff038211156123a2576123a16124c4565b5b828201905092915050565b60006123b8826123dd565b9050919050565b60006123ca826123dd565b9050919050565b60008115159050919050565b600073ffffffffffffffffffffffffffffffffffffffff82169050919050565b6000819050919050565b82818337600083830152505050565b60005b83811015612434578082015181840152602081019050612419565b83811115612443576000848401525b50505050565b6000600282049050600182168061246157607f821691505b60208210811415612475576124746124f3565b5b50919050565b6000612486826123fd565b91507fffffffffffffffffffffffffffffffffffffffffffffffffffffffffffffffff8214156124b9576124b86124c4565b5b600182019050919050565b7f4e487b7100000000000000000000000000000000000000000000000000000000600052601160045260246000fd5b7f4e487b7100000000000000000000000000000000000000000000000000000000600052602260045260246000fd5b7f4e487b7100000000000000000000000000000000000000000000000000000000600052604160045260246000fd5b6000601f19601f8301169050919050565b61256b816123ad565b811461257657600080fd5b50565b612582816123bf565b811461258d57600080fd5b5056fea26469706673582212204a4b7c997f4805ddd00eb36f05bb3fc9789c1554fdc56200c133fd46fdf3e83764736f6c63430008000033",
  "immutableReferences": {},
  "source": "// SPDX-License-Identifier: UNLICENSED\npragma solidity ^0.8.0;\n\n/// @title MedikChain\n/// @author Radoslav Dimitrov\ncontract MedikChain {\n\n    struct MedicalRecord {\n        uint id;\n        string title;\n        string description;\n        address physician;\n        address patient;\n        uint date;\n        address medicalCenter;\n        string[] tags;\n        string attachment;\n    }\n\n    struct UserRole {\n        bool isAdmin; // Admins can grant edit access and can also edit\n        bool isEditor; // Editors can push changes to the blockchain\n    }\n\n    struct PatientInfo {\n        address id;\n        string name;\n        string birthday;\n        string gender;\n        bool registered;\n    }\n\n    event MedicalRecordPublished (\n        uint id,\n        address patient\n    );\n\n    event PatientRegistered (\n        address patient\n    );\n\n    uint private recordsCount = 0;\n\n    // keeps mapping between user (their address) and their access rights\n    mapping(address => UserRole) private userRoles;\n\n    // keeps the mapping between users and the id generator for their records\n    mapping(address => uint) private recordsForPatients;\n\n    // @notice this mapping is the main structure of data for this contract\n    // it maps the patient address to a nested mapping of ids => records of data\n    mapping(address => mapping(uint => MedicalRecord)) private patientRecords;\n\n    address[] private registeredPatients;\n    mapping(address => PatientInfo) private patientsInfo;\n\n    constructor() {\n        // initially, only the creator has access rights\n        userRoles[msg.sender] = UserRole(true, true);\n    }\n\n    modifier onlyEditors() {\n        require(userRoles[msg.sender].isEditor, \"This user has no sufficient access rights to perform this action\");\n        _;\n    }\n\n    modifier onlyAdmins() {\n        require(userRoles[msg.sender].isAdmin, \"This user has no sufficient access rights to perform this action\");\n        _;\n    }\n\n    modifier onlyViewer(address _patient) {\n        bool isAdmin = userRoles[msg.sender].isAdmin;\n        bool isEditor = userRoles[msg.sender].isEditor;\n        bool isOwner = (msg.sender == _patient);\n        bool registered = isRegistered();\n        require(isAdmin || isEditor || (isOwner && registered), \"This user has no sufficient access rights to perform this action\");\n        _;\n    }\n\n    modifier expectPaymentAmount(uint paymentAmount) {\n        require(msg.value >= paymentAmount, \"Transaction value is not sufficient\");\n        _;\n    }\n\n    function grantAdminAccess(address payable _user) public payable onlyAdmins expectPaymentAmount(2 ether) {\n        userRoles[_user].isAdmin = true;\n        userRoles[_user].isEditor = true;\n        _user.transfer(2 ether);\n    }\n\n    function grantEditAccess(address payable _user) public payable onlyAdmins expectPaymentAmount(1 ether) {\n        userRoles[_user].isEditor = true;\n        _user.transfer(1 ether);\n    }\n\n    function canEdit() public view returns(bool) {\n        return userRoles[msg.sender].isEditor;\n    }\n\n    function canGiveAccess() public view returns(bool) {\n        return userRoles[msg.sender].isAdmin;\n    }\n\n    function addMedicalRecord(address _patient, address _physician, string memory _title, string memory _description,\n                              address _medicalCenter, string[] memory _tags, string memory _attachment) public onlyEditors {\n        uint recordsCountForUser = recordsForPatients[_patient];\n        patientRecords[_patient][recordsCountForUser] = MedicalRecord(recordsCount, _title, _description, _physician,\n                                                                      _patient, block.timestamp, _medicalCenter, _tags,\n                                                                      _attachment);\n        recordsForPatients[_patient] = recordsCountForUser + 1;\n        emit MedicalRecordPublished(recordsCount++, _patient);\n    }\n\n\n    function getMedicalRecords(address _patient) public onlyViewer(_patient) view returns (MedicalRecord[] memory) {\n        uint recordsCountForUser = recordsForPatients[_patient];\n        MedicalRecord[] memory result = new MedicalRecord[](recordsCountForUser);\n        for (uint i = 0; i < recordsCountForUser; i++) {\n            result[i] = patientRecords[_patient][i];\n        }\n        return result;\n    }\n\n    function getPatientsInfo() public onlyEditors view returns (PatientInfo[] memory) {\n        uint registeredPatientsCount = registeredPatients.length;\n        PatientInfo[] memory result = new PatientInfo[](registeredPatientsCount);\n        for (uint i = 0; i < registeredPatientsCount; i++) {\n            address currentPatient = registeredPatients[i];\n            result[i] = patientsInfo[currentPatient];\n        }\n        return result;\n    }\n\n    function isRegistered() public view returns(bool) {\n        return patientsInfo[msg.sender].registered;\n    }\n\n    function registerAsPatient(string memory _name, string memory _birthday, string memory _gender) public {\n        require(!isRegistered(), \"Patient is already registered\");\n        patientsInfo[msg.sender] = PatientInfo(msg.sender, _name, _birthday, _gender, true);\n        registeredPatients.push(msg.sender);\n        emit PatientRegistered(msg.sender);\n    }\n}",
  "sourcePath": "/Users/i530753/Desktop/medikchain/medikchain/contracts/MedikChain.sol",
  "compiler": {
    "name": "solc",
    "version": "0.8.0+commit.c7dfd78e.Emscripten.clang"
  },
  "schemaVersion": "3.4.1",
  "updatedAt": "2021-06-09T22:01:22.305Z",
  "networkType": "ethereum",
  "devdoc": {
    "author": "Radoslav Dimitrov",
    "kind": "dev",
    "methods": {},
    "title": "MedikChain",
    "version": 1
  },
  "userdoc": {
    "kind": "user",
    "methods": {},
    "version": 1
  }
}