{
  "contractName": "MedikChain",
  "abi": [
    {
      "inputs": [],
      "stateMutability": "nonpayable",
      "type": "constructor"
    },
    {
      "anonymous": false,
      "inputs": [
        {
          "indexed": false,
          "internalType": "uint256",
          "name": "id",
          "type": "uint256"
        },
        {
          "indexed": false,
          "internalType": "address",
          "name": "patient",
          "type": "address"
        }
      ],
      "name": "MedicalRecordPublished",
      "type": "event"
    },
    {
      "anonymous": false,
      "inputs": [
        {
          "indexed": false,
          "internalType": "address",
          "name": "patient",
          "type": "address"
        }
      ],
      "name": "PatientRegistered",
      "type": "event"
    },
    {
      "inputs": [
        {
          "internalType": "address payable",
          "name": "_user",
          "type": "address"
        }
      ],
      "name": "grantAdminAccess",
      "outputs": [],
      "stateMutability": "payable",
      "type": "function"
    },
    {
      "inputs": [
        {
          "internalType": "address payable",
          "name": "_user",
          "type": "address"
        }
      ],
      "name": "grantEditAccess",
      "outputs": [],
      "stateMutability": "payable",
      "type": "function"
    },
    {
      "inputs": [],
      "name": "canEdit",
      "outputs": [
        {
          "internalType": "bool",
          "name": "",
          "type": "bool"
        }
      ],
      "stateMutability": "view",
      "type": "function"
    },
    {
      "inputs": [],
      "name": "canGiveAccess",
      "outputs": [
        {
          "internalType": "bool",
          "name": "",
          "type": "bool"
        }
      ],
      "stateMutability": "view",
      "type": "function"
    },
    {
      "inputs": [
        {
          "internalType": "address",
          "name": "_patient",
          "type": "address"
        },
        {
          "internalType": "address",
          "name": "_physician",
          "type": "address"
        },
        {
          "internalType": "string",
          "name": "_title",
          "type": "string"
        },
        {
          "internalType": "string",
          "name": "_description",
          "type": "string"
        },
        {
          "internalType": "address",
          "name": "_medicalCenter",
          "type": "address"
        },
        {
          "internalType": "string[]",
          "name": "_tags",
          "type": "string[]"
        },
        {
          "internalType": "string",
          "name": "_attachment",
          "type": "string"
        }
      ],
      "name": "addMedicalRecord",
      "outputs": [],
      "stateMutability": "nonpayable",
      "type": "function"
    },
    {
      "inputs": [
        {
          "internalType": "address",
          "name": "_patient",
          "type": "address"
        },
        {
          "internalType": "uint256",
          "name": "_recordId",
          "type": "uint256"
        }
      ],
      "name": "getMedicalRecord",
      "outputs": [
        {
          "components": [
            {
              "internalType": "uint256",
              "name": "id",
              "type": "uint256"
            },
            {
              "internalType": "string",
              "name": "title",
              "type": "string"
            },
            {
              "internalType": "string",
              "name": "description",
              "type": "string"
            },
            {
              "internalType": "address",
              "name": "physician",
              "type": "address"
            },
            {
              "internalType": "address",
              "name": "patient",
              "type": "address"
            },
            {
              "internalType": "uint256",
              "name": "date",
              "type": "uint256"
            },
            {
              "internalType": "address",
              "name": "medicalCenter",
              "type": "address"
            },
            {
              "internalType": "string[]",
              "name": "tags",
              "type": "string[]"
            },
            {
              "internalType": "string",
              "name": "attachment",
              "type": "string"
            }
          ],
          "internalType": "struct MedikChain.MedicalRecord",
          "name": "",
          "type": "tuple"
        }
      ],
      "stateMutability": "view",
      "type": "function"
    },
    {
      "inputs": [
        {
          "internalType": "address",
          "name": "_patient",
          "type": "address"
        }
      ],
      "name": "getMedicalRecords",
      "outputs": [
        {
          "components": [
            {
              "internalType": "uint256",
              "name": "id",
              "type": "uint256"
            },
            {
              "internalType": "string",
              "name": "title",
              "type": "string"
            },
            {
              "internalType": "string",
              "name": "description",
              "type": "string"
            },
            {
              "internalType": "address",
              "name": "physician",
              "type": "address"
            },
            {
              "internalType": "address",
              "name": "patient",
              "type": "address"
            },
            {
              "internalType": "uint256",
              "name": "date",
              "type": "uint256"
            },
            {
              "internalType": "address",
              "name": "medicalCenter",
              "type": "address"
            },
            {
              "internalType": "string[]",
              "name": "tags",
              "type": "string[]"
            },
            {
              "internalType": "string",
              "name": "attachment",
              "type": "string"
            }
          ],
          "internalType": "struct MedikChain.MedicalRecord[]",
          "name": "",
          "type": "tuple[]"
        }
      ],
      "stateMutability": "view",
      "type": "function"
    },
    {
      "inputs": [],
      "name": "getPatientsInfo",
      "outputs": [
        {
          "components": [
            {
              "internalType": "address",
              "name": "id",
              "type": "address"
            },
            {
              "internalType": "string",
              "name": "name",
              "type": "string"
            },
            {
              "internalType": "string",
              "name": "nationalId",
              "type": "string"
            },
            {
              "internalType": "string",
              "name": "gender",
              "type": "string"
            },
            {
              "internalType": "bool",
              "name": "registered",
              "type": "bool"
            }
          ],
          "internalType": "struct MedikChain.PatientInfo[]",
          "name": "",
          "type": "tuple[]"
        }
      ],
      "stateMutability": "view",
      "type": "function"
    },
    {
      "inputs": [],
      "name": "isRegistered",
      "outputs": [
        {
          "internalType": "bool",
          "name": "",
          "type": "bool"
        }
      ],
      "stateMutability": "view",
      "type": "function"
    },
    {
      "inputs": [
        {
          "internalType": "string",
          "name": "_name",
          "type": "string"
        },
        {
          "internalType": "string",
          "name": "_nationalId",
          "type": "string"
        },
        {
          "internalType": "string",
          "name": "_gender",
          "type": "string"
        }
      ],
      "name": "registerAsPatient",
      "outputs": [],
      "stateMutability": "nonpayable",
      "type": "function"
    }
  ],
  "bytecode": "0x608060405234801561001057600080fd5b506040518060400160405280600115158152602001600115158152506000803373ffffffffffffffffffffffffffffffffffffffff1673ffffffffffffffffffffffffffffffffffffffff16815260200190815260200160002060008201518160000160006101000a81548160ff02191690831515021790555060208201518160000160016101000a81548160ff021916908315150217905550905050612d6f806100bc6000396000f3fe6080604052600436106100915760003560e01c806377bd18501161005957806377bd18501461014d57806381beeb6414610178578063afd8297c146101a3578063cbe207dc146101e0578063eea9c37b1461020957610091565b80631822faa31461009657806322366844146100bf57806322b3127a146100ea5780633d1f6ec3146101065780634050cee514610122575b600080fd5b3480156100a257600080fd5b506100bd60048036038101906100b8919061224c565b610246565b005b3480156100cb57600080fd5b506100d461046d565b6040516100e191906128f4565b60405180910390f35b61010460048036038101906100ff91906120e9565b6104c4565b005b610120600480360381019061011b91906120e9565b6106a5565b005b34801561012e57600080fd5b5061013761082c565b60405161014491906128f4565b60405180910390f35b34801561015957600080fd5b50610162610882565b60405161016f91906128d2565b60405180910390f35b34801561018457600080fd5b5061018d610ce0565b60405161019a91906128f4565b60405180910390f35b3480156101af57600080fd5b506101ca60048036038101906101c591906120c0565b610d36565b6040516101d791906128b0565b60405180910390f35b3480156101ec57600080fd5b5061020760048036038101906102029190612112565b6113ac565b005b34801561021557600080fd5b50610230600480360381019061022b9190612210565b611780565b60405161023d919061298f565b60405180910390f35b61024e61046d565b1561028e576040517f08c379a00000000000000000000000000000000000000000000000000000000081526004016102859061294f565b60405180910390fd5b6040518060a001604052803373ffffffffffffffffffffffffffffffffffffffff16815260200184815260200183815260200182815260200160011515815250600460003373ffffffffffffffffffffffffffffffffffffffff1673ffffffffffffffffffffffffffffffffffffffff16815260200190815260200160002060008201518160000160006101000a81548173ffffffffffffffffffffffffffffffffffffffff021916908373ffffffffffffffffffffffffffffffffffffffff1602179055506020820151816001019080519060200190610370929190611d56565b50604082015181600201908051906020019061038d929190611d56565b5060608201518160030190805190602001906103aa929190611d56565b5060808201518160040160006101000a81548160ff0219169083151502179055509050506003339080600181540180825580915050600190039060005260206000200160009091909190916101000a81548173ffffffffffffffffffffffffffffffffffffffff021916908373ffffffffffffffffffffffffffffffffffffffff1602179055507fc9fa2003fca4ce0dfc8cb0deae32266b715536df6685365b05b5be96ede8e49c336040516104609190612895565b60405180910390a1505050565b6000600460003373ffffffffffffffffffffffffffffffffffffffff1673ffffffffffffffffffffffffffffffffffffffff16815260200190815260200160002060040160009054906101000a900460ff16905090565b6000803373ffffffffffffffffffffffffffffffffffffffff1673ffffffffffffffffffffffffffffffffffffffff16815260200190815260200160002060000160009054906101000a900460ff16610552576040517f08c379a00000000000000000000000000000000000000000000000000000000081526004016105499061296f565b60405180910390fd5b671bc16d674ec800008034101561059e576040517f08c379a00000000000000000000000000000000000000000000000000000000081526004016105959061290f565b60405180910390fd5b60016000808473ffffffffffffffffffffffffffffffffffffffff1673ffffffffffffffffffffffffffffffffffffffff16815260200190815260200160002060000160006101000a81548160ff02191690831515021790555060016000808473ffffffffffffffffffffffffffffffffffffffff1673ffffffffffffffffffffffffffffffffffffffff16815260200190815260200160002060000160016101000a81548160ff0219169083151502179055508173ffffffffffffffffffffffffffffffffffffffff166108fc671bc16d674ec800009081150290604051600060405180830381858888f193505050501580156106a0573d6000803e3d6000fd5b505050565b6000803373ffffffffffffffffffffffffffffffffffffffff1673ffffffffffffffffffffffffffffffffffffffff16815260200190815260200160002060000160009054906101000a900460ff16610733576040517f08c379a000000000000000000000000000000000000000000000000000000000815260040161072a9061296f565b60405180910390fd5b670de0b6b3a76400008034101561077f576040517f08c379a00000000000000000000000000000000000000000000000000000000081526004016107769061290f565b60405180910390fd5b60016000808473ffffffffffffffffffffffffffffffffffffffff1673ffffffffffffffffffffffffffffffffffffffff16815260200190815260200160002060000160016101000a81548160ff0219169083151502179055508173ffffffffffffffffffffffffffffffffffffffff166108fc670de0b6b3a76400009081150290604051600060405180830381858888f19350505050158015610827573d6000803e3d6000fd5b505050565b60008060003373ffffffffffffffffffffffffffffffffffffffff1673ffffffffffffffffffffffffffffffffffffffff16815260200190815260200160002060000160009054906101000a900460ff16905090565b60606000803373ffffffffffffffffffffffffffffffffffffffff1673ffffffffffffffffffffffffffffffffffffffff16815260200190815260200160002060000160019054906101000a900460ff16610912576040517f08c379a00000000000000000000000000000000000000000000000000000000081526004016109099061296f565b60405180910390fd5b6000600380549050905060008167ffffffffffffffff81111561095e577f4e487b7100000000000000000000000000000000000000000000000000000000600052604160045260246000fd5b60405190808252806020026020018201604052801561099757816020015b610984611ddc565b81526020019060019003908161097c5790505b50905060005b82811015610cd7576000600382815481106109e1577f4e487b7100000000000000000000000000000000000000000000000000000000600052603260045260246000fd5b9060005260206000200160009054906101000a900473ffffffffffffffffffffffffffffffffffffffff169050600460008273ffffffffffffffffffffffffffffffffffffffff1673ffffffffffffffffffffffffffffffffffffffff1681526020019081526020016000206040518060a00160405290816000820160009054906101000a900473ffffffffffffffffffffffffffffffffffffffff1673ffffffffffffffffffffffffffffffffffffffff1673ffffffffffffffffffffffffffffffffffffffff168152602001600182018054610abe90612bdb565b80601f0160208091040260200160405190810160405280929190818152602001828054610aea90612bdb565b8015610b375780601f10610b0c57610100808354040283529160200191610b37565b820191906000526020600020905b815481529060010190602001808311610b1a57829003601f168201915b50505050508152602001600282018054610b5090612bdb565b80601f0160208091040260200160405190810160405280929190818152602001828054610b7c90612bdb565b8015610bc95780601f10610b9e57610100808354040283529160200191610bc9565b820191906000526020600020905b815481529060010190602001808311610bac57829003601f168201915b50505050508152602001600382018054610be290612bdb565b80601f0160208091040260200160405190810160405280929190818152602001828054610c0e90612bdb565b8015610c5b5780601f10610c3057610100808354040283529160200191610c5b565b820191906000526020600020905b815481529060010190602001808311610c3e57829003601f168201915b505050505081526020016004820160009054906101000a900460ff161515151581525050838381518110610cb8577f4e487b7100000000000000000000000000000000000000000000000000000000600052603260045260246000fd5b6020026020010181905250508080610ccf90612c0d565b91505061099d565b50809250505090565b60008060003373ffffffffffffffffffffffffffffffffffffffff1673ffffffffffffffffffffffffffffffffffffffff16815260200190815260200160002060000160019054906101000a900460ff16905090565b60608160008060003373ffffffffffffffffffffffffffffffffffffffff1673ffffffffffffffffffffffffffffffffffffffff16815260200190815260200160002060000160009054906101000a900460ff16905060008060003373ffffffffffffffffffffffffffffffffffffffff1673ffffffffffffffffffffffffffffffffffffffff16815260200190815260200160002060000160019054906101000a900460ff16905060008373ffffffffffffffffffffffffffffffffffffffff163373ffffffffffffffffffffffffffffffffffffffff161490506000610e1c61046d565b90508380610e275750825b80610e385750818015610e375750805b5b610e77576040517f08c379a0000000000000000000000000000000000000000000000000000000008152600401610e6e9061296f565b60405180910390fd5b6000600160008973ffffffffffffffffffffffffffffffffffffffff1673ffffffffffffffffffffffffffffffffffffffff16815260200190815260200160002054905060008167ffffffffffffffff811115610efd577f4e487b7100000000000000000000000000000000000000000000000000000000600052604160045260246000fd5b604051908082528060200260200182016040528015610f3657816020015b610f23611e23565b815260200190600190039081610f1b5790505b50905060005b8281101561139c57600260008b73ffffffffffffffffffffffffffffffffffffffff1673ffffffffffffffffffffffffffffffffffffffff16815260200190815260200160002060008281526020019081526020016000206040518061012001604052908160008201548152602001600182018054610fba90612bdb565b80601f0160208091040260200160405190810160405280929190818152602001828054610fe690612bdb565b80156110335780601f1061100857610100808354040283529160200191611033565b820191906000526020600020905b81548152906001019060200180831161101657829003601f168201915b5050505050815260200160028201805461104c90612bdb565b80601f016020809104026020016040519081016040528092919081815260200182805461107890612bdb565b80156110c55780601f1061109a576101008083540402835291602001916110c5565b820191906000526020600020905b8154815290600101906020018083116110a857829003601f168201915b505050505081526020016003820160009054906101000a900473ffffffffffffffffffffffffffffffffffffffff1673ffffffffffffffffffffffffffffffffffffffff1673ffffffffffffffffffffffffffffffffffffffff1681526020016004820160009054906101000a900473ffffffffffffffffffffffffffffffffffffffff1673ffffffffffffffffffffffffffffffffffffffff1673ffffffffffffffffffffffffffffffffffffffff168152602001600582015481526020016006820160009054906101000a900473ffffffffffffffffffffffffffffffffffffffff1673ffffffffffffffffffffffffffffffffffffffff1673ffffffffffffffffffffffffffffffffffffffff16815260200160078201805480602002602001604051908101604052809291908181526020016000905b828210156112ab57838290600052602060002001805461121e90612bdb565b80601f016020809104026020016040519081016040528092919081815260200182805461124a90612bdb565b80156112975780601f1061126c57610100808354040283529160200191611297565b820191906000526020600020905b81548152906001019060200180831161127a57829003601f168201915b5050505050815260200190600101906111ff565b5050505081526020016008820180546112c390612bdb565b80601f01602080910402602001604051908101604052809291908181526020018280546112ef90612bdb565b801561133c5780601f106113115761010080835404028352916020019161133c565b820191906000526020600020905b81548152906001019060200180831161131f57829003601f168201915b50505050508152505082828151811061137e577f4e487b7100000000000000000000000000000000000000000000000000000000600052603260045260246000fd5b6020026020010181905250808061139490612c0d565b915050610f3c565b5080975050505050505050919050565b6000803373ffffffffffffffffffffffffffffffffffffffff1673ffffffffffffffffffffffffffffffffffffffff16815260200190815260200160002060000160019054906101000a900460ff1661143a576040517f08c379a00000000000000000000000000000000000000000000000000000000081526004016114319061296f565b60405180910390fd5b604051806101200160405280600160008a73ffffffffffffffffffffffffffffffffffffffff1673ffffffffffffffffffffffffffffffffffffffff1681526020019081526020016000205481526020018681526020018581526020018773ffffffffffffffffffffffffffffffffffffffff1681526020018873ffffffffffffffffffffffffffffffffffffffff1681526020014281526020018473ffffffffffffffffffffffffffffffffffffffff16815260200183815260200182815250600260008973ffffffffffffffffffffffffffffffffffffffff1673ffffffffffffffffffffffffffffffffffffffff1681526020019081526020016000206000600160008b73ffffffffffffffffffffffffffffffffffffffff1673ffffffffffffffffffffffffffffffffffffffff1681526020019081526020016000205481526020019081526020016000206000820151816000015560208201518160010190805190602001906115b0929190611d56565b5060408201518160020190805190602001906115cd929190611d56565b5060608201518160030160006101000a81548173ffffffffffffffffffffffffffffffffffffffff021916908373ffffffffffffffffffffffffffffffffffffffff16021790555060808201518160040160006101000a81548173ffffffffffffffffffffffffffffffffffffffff021916908373ffffffffffffffffffffffffffffffffffffffff16021790555060a0820151816005015560c08201518160060160006101000a81548173ffffffffffffffffffffffffffffffffffffffff021916908373ffffffffffffffffffffffffffffffffffffffff16021790555060e08201518160070190805190602001906116c9929190611eb1565b506101008201518160080190805190602001906116e7929190611d56565b509050507f88919c45d9d7dd916e0367a3d90ea5059af1eb091c5a047cd5258938ea9f2bac600160008973ffffffffffffffffffffffffffffffffffffffff1673ffffffffffffffffffffffffffffffffffffffff168152602001908152602001600020600081548092919061175c90612c0d565b919050558860405161176f9291906129b1565b60405180910390a150505050505050565b611788611e23565b8260008060003373ffffffffffffffffffffffffffffffffffffffff1673ffffffffffffffffffffffffffffffffffffffff16815260200190815260200160002060000160009054906101000a900460ff16905060008060003373ffffffffffffffffffffffffffffffffffffffff1673ffffffffffffffffffffffffffffffffffffffff16815260200190815260200160002060000160019054906101000a900460ff16905060008373ffffffffffffffffffffffffffffffffffffffff163373ffffffffffffffffffffffffffffffffffffffff16149050600061186c61046d565b905083806118775750825b8061188857508180156118875750805b5b6118c7576040517f08c379a00000000000000000000000000000000000000000000000000000000081526004016118be9061296f565b60405180910390fd5b86600160008a73ffffffffffffffffffffffffffffffffffffffff1673ffffffffffffffffffffffffffffffffffffffff1681526020019081526020016000205411611948576040517f08c379a000000000000000000000000000000000000000000000000000000000815260040161193f9061292f565b60405180910390fd5b600260008973ffffffffffffffffffffffffffffffffffffffff1673ffffffffffffffffffffffffffffffffffffffff168152602001908152602001600020600088815260200190815260200160002060405180610120016040529081600082015481526020016001820180546119be90612bdb565b80601f01602080910402602001604051908101604052809291908181526020018280546119ea90612bdb565b8015611a375780601f10611a0c57610100808354040283529160200191611a37565b820191906000526020600020905b815481529060010190602001808311611a1a57829003601f168201915b50505050508152602001600282018054611a5090612bdb565b80601f0160208091040260200160405190810160405280929190818152602001828054611a7c90612bdb565b8015611ac95780601f10611a9e57610100808354040283529160200191611ac9565b820191906000526020600020905b815481529060010190602001808311611aac57829003601f168201915b505050505081526020016003820160009054906101000a900473ffffffffffffffffffffffffffffffffffffffff1673ffffffffffffffffffffffffffffffffffffffff1673ffffffffffffffffffffffffffffffffffffffff1681526020016004820160009054906101000a900473ffffffffffffffffffffffffffffffffffffffff1673ffffffffffffffffffffffffffffffffffffffff1673ffffffffffffffffffffffffffffffffffffffff168152602001600582015481526020016006820160009054906101000a900473ffffffffffffffffffffffffffffffffffffffff1673ffffffffffffffffffffffffffffffffffffffff1673ffffffffffffffffffffffffffffffffffffffff16815260200160078201805480602002602001604051908101604052809291908181526020016000905b82821015611caf578382906000526020600020018054611c2290612bdb565b80601f0160208091040260200160405190810160405280929190818152602001828054611c4e90612bdb565b8015611c9b5780601f10611c7057610100808354040283529160200191611c9b565b820191906000526020600020905b815481529060010190602001808311611c7e57829003601f168201915b505050505081526020019060010190611c03565b505050508152602001600882018054611cc790612bdb565b80601f0160208091040260200160405190810160405280929190818152602001828054611cf390612bdb565b8015611d405780601f10611d1557610100808354040283529160200191611d40565b820191906000526020600020905b815481529060010190602001808311611d2357829003601f168201915b5050505050815250509550505050505092915050565b828054611d6290612bdb565b90600052602060002090601f016020900481019282611d845760008555611dcb565b82601f10611d9d57805160ff1916838001178555611dcb565b82800160010185558215611dcb579182015b82811115611dca578251825591602001919060010190611daf565b5b509050611dd89190611f11565b5090565b6040518060a00160405280600073ffffffffffffffffffffffffffffffffffffffff1681526020016060815260200160608152602001606081526020016000151581525090565b604051806101200160405280600081526020016060815260200160608152602001600073ffffffffffffffffffffffffffffffffffffffff168152602001600073ffffffffffffffffffffffffffffffffffffffff16815260200160008152602001600073ffffffffffffffffffffffffffffffffffffffff16815260200160608152602001606081525090565b828054828255906000526020600020908101928215611f00579160200282015b82811115611eff578251829080519060200190611eef929190611d56565b5091602001919060010190611ed1565b5b509050611f0d9190611f2e565b5090565b5b80821115611f2a576000816000905550600101611f12565b5090565b5b80821115611f4e5760008181611f459190611f52565b50600101611f2f565b5090565b508054611f5e90612bdb565b6000825580601f10611f705750611f8f565b601f016020900490600052602060002090810190611f8e9190611f11565b5b50565b6000611fa5611fa084612a0b565b6129da565b9050808382526020820190508260005b85811015611fe55781358501611fcb8882612081565b845260208401935060208301925050600181019050611fb5565b5050509392505050565b6000612002611ffd84612a37565b6129da565b90508281526020810184848401111561201a57600080fd5b612025848285612b99565b509392505050565b60008135905061203c81612cf4565b92915050565b60008135905061205181612d0b565b92915050565b600082601f83011261206857600080fd5b8135612078848260208601611f92565b91505092915050565b600082601f83011261209257600080fd5b81356120a2848260208601611fef565b91505092915050565b6000813590506120ba81612d22565b92915050565b6000602082840312156120d257600080fd5b60006120e08482850161202d565b91505092915050565b6000602082840312156120fb57600080fd5b600061210984828501612042565b91505092915050565b600080600080600080600060e0888a03121561212d57600080fd5b600061213b8a828b0161202d565b975050602061214c8a828b0161202d565b965050604088013567ffffffffffffffff81111561216957600080fd5b6121758a828b01612081565b955050606088013567ffffffffffffffff81111561219257600080fd5b61219e8a828b01612081565b94505060806121af8a828b0161202d565b93505060a088013567ffffffffffffffff8111156121cc57600080fd5b6121d88a828b01612057565b92505060c088013567ffffffffffffffff8111156121f557600080fd5b6122018a828b01612081565b91505092959891949750929550565b6000806040838503121561222357600080fd5b60006122318582860161202d565b9250506020612242858286016120ab565b9150509250929050565b60008060006060848603121561226157600080fd5b600084013567ffffffffffffffff81111561227b57600080fd5b61228786828701612081565b935050602084013567ffffffffffffffff8111156122a457600080fd5b6122b086828701612081565b925050604084013567ffffffffffffffff8111156122cd57600080fd5b6122d986828701612081565b9150509250925092565b60006122ef83836124ba565b905092915050565b6000612303838361263f565b905092915050565b600061231783836127f3565b905092915050565b61232881612b3f565b82525050565b61233781612b3f565b82525050565b600061234882612a97565b6123528185612aea565b93508360208202850161236485612a67565b8060005b858110156123a0578484038952815161238185826122e3565b945061238c83612ac3565b925060208a01995050600181019050612368565b50829750879550505050505092915050565b60006123bd82612aa2565b6123c78185612afb565b9350836020820285016123d985612a77565b8060005b8581101561241557848403895281516123f685826122f7565b945061240183612ad0565b925060208a019950506001810190506123dd565b50829750879550505050505092915050565b600061243282612aad565b61243c8185612b0c565b93508360208202850161244e85612a87565b8060005b8581101561248a578484038952815161246b858261230b565b945061247683612add565b925060208a01995050600181019050612452565b50829750879550505050505092915050565b6124a581612b63565b82525050565b6124b481612b63565b82525050565b60006124c582612ab8565b6124cf8185612b1d565b93506124df818560208601612ba8565b6124e881612ce3565b840191505092915050565b6000612500602383612b2e565b91507f5472616e73616374696f6e2076616c7565206973206e6f74207375666669636960008301527f656e7400000000000000000000000000000000000000000000000000000000006020830152604082019050919050565b6000612566601983612b2e565b91507f496e76616c6964206d65646963616c207265636f7264204944000000000000006000830152602082019050919050565b60006125a6601d83612b2e565b91507f50617469656e7420697320616c726561647920726567697374657265640000006000830152602082019050919050565b60006125e6604083612b2e565b91507f54686973207573657220686173206e6f2073756666696369656e74206163636560008301527f73732072696768747320746f20706572666f726d207468697320616374696f6e6020830152604082019050919050565b6000610120830160008301516126586000860182612877565b506020830151848203602086015261267082826124ba565b9150506040830151848203604086015261268a82826124ba565b915050606083015161269f606086018261231f565b5060808301516126b2608086018261231f565b5060a08301516126c560a0860182612877565b5060c08301516126d860c086018261231f565b5060e083015184820360e08601526126f0828261233d565b91505061010083015184820361010086015261270c82826124ba565b9150508091505092915050565b6000610120830160008301516127326000860182612877565b506020830151848203602086015261274a82826124ba565b9150506040830151848203604086015261276482826124ba565b9150506060830151612779606086018261231f565b50608083015161278c608086018261231f565b5060a083015161279f60a0860182612877565b5060c08301516127b260c086018261231f565b5060e083015184820360e08601526127ca828261233d565b9150506101008301518482036101008601526127e682826124ba565b9150508091505092915050565b600060a08301600083015161280b600086018261231f565b506020830151848203602086015261282382826124ba565b9150506040830151848203604086015261283d82826124ba565b9150506060830151848203606086015261285782826124ba565b915050608083015161286c608086018261249c565b508091505092915050565b61288081612b8f565b82525050565b61288f81612b8f565b82525050565b60006020820190506128aa600083018461232e565b92915050565b600060208201905081810360008301526128ca81846123b2565b905092915050565b600060208201905081810360008301526128ec8184612427565b905092915050565b600060208201905061290960008301846124ab565b92915050565b60006020820190508181036000830152612928816124f3565b9050919050565b6000602082019050818103600083015261294881612559565b9050919050565b6000602082019050818103600083015261296881612599565b9050919050565b60006020820190508181036000830152612988816125d9565b9050919050565b600060208201905081810360008301526129a98184612719565b905092915050565b60006040820190506129c66000830185612886565b6129d3602083018461232e565b9392505050565b6000604051905081810181811067ffffffffffffffff82111715612a0157612a00612cb4565b5b8060405250919050565b600067ffffffffffffffff821115612a2657612a25612cb4565b5b602082029050602081019050919050565b600067ffffffffffffffff821115612a5257612a51612cb4565b5b601f19601f8301169050602081019050919050565b6000819050602082019050919050565b6000819050602082019050919050565b6000819050602082019050919050565b600081519050919050565b600081519050919050565b600081519050919050565b600081519050919050565b6000602082019050919050565b6000602082019050919050565b6000602082019050919050565b600082825260208201905092915050565b600082825260208201905092915050565b600082825260208201905092915050565b600082825260208201905092915050565b600082825260208201905092915050565b6000612b4a82612b6f565b9050919050565b6000612b5c82612b6f565b9050919050565b60008115159050919050565b600073ffffffffffffffffffffffffffffffffffffffff82169050919050565b6000819050919050565b82818337600083830152505050565b60005b83811015612bc6578082015181840152602081019050612bab565b83811115612bd5576000848401525b50505050565b60006002820490506001821680612bf357607f821691505b60208210811415612c0757612c06612c85565b5b50919050565b6000612c1882612b8f565b91507fffffffffffffffffffffffffffffffffffffffffffffffffffffffffffffffff821415612c4b57612c4a612c56565b5b600182019050919050565b7f4e487b7100000000000000000000000000000000000000000000000000000000600052601160045260246000fd5b7f4e487b7100000000000000000000000000000000000000000000000000000000600052602260045260246000fd5b7f4e487b7100000000000000000000000000000000000000000000000000000000600052604160045260246000fd5b6000601f19601f8301169050919050565b612cfd81612b3f565b8114612d0857600080fd5b50565b612d1481612b51565b8114612d1f57600080fd5b50565b612d2b81612b8f565b8114612d3657600080fd5b5056fea26469706673582212204db9e739009e3bac80c5a814153f9a0455da4816408948b3468be2c82373c5d564736f6c63430008000033",
  "immutableReferences": {},
  "source": "// SPDX-License-Identifier: UNLICENSED\npragma solidity ^0.8.0;\n\n/// @title MedikChain\n/// @author Radoslav Dimitrov\ncontract MedikChain {\n\n    struct MedicalRecord {\n        uint id;\n        string title;\n        string description;\n        address physician;\n        address patient;\n        uint date;\n        address medicalCenter;\n        string[] tags;\n        string attachment;\n    }\n\n    struct UserRole {\n        bool isAdmin; // Admins can grant edit access and can also edit\n        bool isEditor; // Editors can push changes to the blockchain\n    }\n\n    struct PatientInfo {\n        address id;\n        string name;\n        string nationalId;\n        string gender;\n        bool registered;\n    }\n\n    event MedicalRecordPublished (\n        uint id,\n        address patient\n    );\n\n    event PatientRegistered (\n        address patient\n    );\n\n    // keeps mapping between user (their address) and their access rights\n    mapping(address => UserRole) private userRoles;\n\n    // keeps the mapping between users and the id generator for their records\n    mapping(address => uint) private recordsForPatients;\n\n    // @notice this mapping is the main structure of data for this contract\n    // it maps the patient address to a nested mapping of ids => records of data\n    mapping(address => mapping(uint => MedicalRecord)) private patientRecords;\n\n    address[] private registeredPatients;\n    mapping(address => PatientInfo) private patientsInfo;\n\n    constructor() {\n        // initially, only the creator has access rights\n        userRoles[msg.sender] = UserRole(true, true);\n    }\n\n    modifier onlyEditors() {\n        require(userRoles[msg.sender].isEditor, \"This user has no sufficient access rights to perform this action\");\n        _;\n    }\n\n    modifier onlyAdmins() {\n        require(userRoles[msg.sender].isAdmin, \"This user has no sufficient access rights to perform this action\");\n        _;\n    }\n\n    modifier onlyViewer(address _patient) {\n        bool isAdmin = userRoles[msg.sender].isAdmin;\n        bool isEditor = userRoles[msg.sender].isEditor;\n        bool isOwner = (msg.sender == _patient);\n        bool registered = isRegistered();\n        require(isAdmin || isEditor || (isOwner && registered), \"This user has no sufficient access rights to perform this action\");\n        _;\n    }\n\n    modifier expectPaymentAmount(uint paymentAmount) {\n        require(msg.value >= paymentAmount, \"Transaction value is not sufficient\");\n        _;\n    }\n\n    function grantAdminAccess(address payable _user) public payable onlyAdmins expectPaymentAmount(2 ether) {\n        userRoles[_user].isAdmin = true;\n        userRoles[_user].isEditor = true;\n        _user.transfer(2 ether);\n    }\n\n    function grantEditAccess(address payable _user) public payable onlyAdmins expectPaymentAmount(1 ether) {\n        userRoles[_user].isEditor = true;\n        _user.transfer(1 ether);\n    }\n\n    function canEdit() public view returns (bool) {\n        return userRoles[msg.sender].isEditor;\n    }\n\n    function canGiveAccess() public view returns (bool) {\n        return userRoles[msg.sender].isAdmin;\n    }\n\n    function addMedicalRecord(address _patient, address _physician, string memory _title, string memory _description,\n        address _medicalCenter, string[] memory _tags, string memory _attachment) public onlyEditors {\n        patientRecords[_patient][recordsForPatients[_patient]] = MedicalRecord(recordsForPatients[_patient], _title,\n            _description, _physician, _patient, block.timestamp, _medicalCenter, _tags, _attachment);\n        emit MedicalRecordPublished(recordsForPatients[_patient]++, _patient);\n    }\n\n    function getMedicalRecord(address _patient, uint _recordId) public onlyViewer(_patient) view returns (MedicalRecord memory) {\n        require(recordsForPatients[_patient] > _recordId, \"Invalid medical record ID\");\n        return patientRecords[_patient][_recordId];\n    }\n\n    function getMedicalRecords(address _patient) public onlyViewer(_patient) view returns (MedicalRecord[] memory) {\n        uint recordsCountForUser = recordsForPatients[_patient];\n        MedicalRecord[] memory result = new MedicalRecord[](recordsCountForUser);\n        for (uint i = 0; i < recordsCountForUser; i++) {\n            result[i] = patientRecords[_patient][i];\n        }\n        return result;\n    }\n\n    function getPatientsInfo() public onlyEditors view returns (PatientInfo[] memory) {\n        uint registeredPatientsCount = registeredPatients.length;\n        PatientInfo[] memory result = new PatientInfo[](registeredPatientsCount);\n        for (uint i = 0; i < registeredPatientsCount; i++) {\n            address currentPatient = registeredPatients[i];\n            result[i] = patientsInfo[currentPatient];\n        }\n        return result;\n    }\n\n    function isRegistered() public view returns (bool) {\n        return patientsInfo[msg.sender].registered;\n    }\n\n    function registerAsPatient(string memory _name, string memory _nationalId, string memory _gender) public {\n        require(!isRegistered(), \"Patient is already registered\");\n        patientsInfo[msg.sender] = PatientInfo(msg.sender, _name, _nationalId, _gender, true);\n        registeredPatients.push(msg.sender);\n        emit PatientRegistered(msg.sender);\n    }\n}",
  "sourcePath": "/Users/i530753/Desktop/medikchain/medikchain/contracts/MedikChain.sol",
  "compiler": {
    "name": "solc",
    "version": "0.8.0+commit.c7dfd78e.Emscripten.clang"
  },
  "schemaVersion": "3.4.1",
  "updatedAt": "2021-06-22T15:48:30.514Z",
  "devdoc": {
    "author": "Radoslav Dimitrov",
    "kind": "dev",
    "methods": {},
    "title": "MedikChain",
    "version": 1
  },
  "userdoc": {
    "kind": "user",
    "methods": {},
    "version": 1
  }
}