{
  "contractName": "MedikChain",
  "abi": [
    {
      "inputs": [],
      "stateMutability": "nonpayable",
      "type": "constructor"
    },
    {
      "anonymous": false,
      "inputs": [
        {
          "indexed": false,
          "internalType": "uint256",
          "name": "id",
          "type": "uint256"
        },
        {
          "indexed": false,
          "internalType": "address",
          "name": "patient",
          "type": "address"
        }
      ],
      "name": "MedicalRecordPublished",
      "type": "event"
    },
    {
      "inputs": [
        {
          "internalType": "address",
          "name": "_user",
          "type": "address"
        }
      ],
      "name": "grantAdminAccess",
      "outputs": [],
      "stateMutability": "nonpayable",
      "type": "function"
    },
    {
      "inputs": [
        {
          "internalType": "address",
          "name": "_user",
          "type": "address"
        }
      ],
      "name": "grantEditAccess",
      "outputs": [],
      "stateMutability": "nonpayable",
      "type": "function"
    },
    {
      "inputs": [
        {
          "internalType": "address",
          "name": "_patient",
          "type": "address"
        },
        {
          "internalType": "address",
          "name": "_physician",
          "type": "address"
        },
        {
          "internalType": "string",
          "name": "_title",
          "type": "string"
        },
        {
          "internalType": "string",
          "name": "_description",
          "type": "string"
        },
        {
          "internalType": "address",
          "name": "_medicalCenter",
          "type": "address"
        },
        {
          "internalType": "string[]",
          "name": "_tags",
          "type": "string[]"
        },
        {
          "internalType": "string",
          "name": "_attachment",
          "type": "string"
        }
      ],
      "name": "addMedicalRecord",
      "outputs": [],
      "stateMutability": "nonpayable",
      "type": "function"
    },
    {
      "inputs": [
        {
          "internalType": "address",
          "name": "_patient",
          "type": "address"
        }
      ],
      "name": "getMedicalRecords",
      "outputs": [
        {
          "components": [
            {
              "internalType": "uint256",
              "name": "id",
              "type": "uint256"
            },
            {
              "internalType": "string",
              "name": "title",
              "type": "string"
            },
            {
              "internalType": "string",
              "name": "description",
              "type": "string"
            },
            {
              "internalType": "address",
              "name": "physician",
              "type": "address"
            },
            {
              "internalType": "address",
              "name": "patient",
              "type": "address"
            },
            {
              "internalType": "uint256",
              "name": "date",
              "type": "uint256"
            },
            {
              "internalType": "address",
              "name": "medicalCenter",
              "type": "address"
            },
            {
              "internalType": "string[]",
              "name": "tags",
              "type": "string[]"
            },
            {
              "internalType": "string",
              "name": "attachment",
              "type": "string"
            }
          ],
          "internalType": "struct MedikChain.MedicalRecord[]",
          "name": "",
          "type": "tuple[]"
        }
      ],
      "stateMutability": "view",
      "type": "function"
    }
  ],
  "bytecode": "0x60806040526000805534801561001457600080fd5b50604051806040016040528060011515815260200160011515815250600160003373ffffffffffffffffffffffffffffffffffffffff1673ffffffffffffffffffffffffffffffffffffffff16815260200190815260200160002060008201518160000160006101000a81548160ff02191690831515021790555060208201518160000160016101000a81548160ff0219169083151502179055509050506117d1806100c16000396000f3fe608060405234801561001057600080fd5b506004361061004c5760003560e01c806322b3127a146100515780633d1f6ec31461006d578063afd8297c14610089578063cbe207dc146100b9575b600080fd5b61006b60048036038101906100669190611012565b6100d5565b005b61008760048036038101906100829190611012565b61021b565b005b6100a3600480360381019061009e9190611012565b610307565b6040516100b09190611400565b60405180910390f35b6100d360048036038101906100ce919061103b565b610969565b005b600160003373ffffffffffffffffffffffffffffffffffffffff1673ffffffffffffffffffffffffffffffffffffffff16815260200190815260200160002060000160009054906101000a900460ff16610164576040517f08c379a000000000000000000000000000000000000000000000000000000000815260040161015b90611422565b60405180910390fd5b60018060008373ffffffffffffffffffffffffffffffffffffffff1673ffffffffffffffffffffffffffffffffffffffff16815260200190815260200160002060000160006101000a81548160ff02191690831515021790555060018060008373ffffffffffffffffffffffffffffffffffffffff1673ffffffffffffffffffffffffffffffffffffffff16815260200190815260200160002060000160016101000a81548160ff02191690831515021790555050565b600160003373ffffffffffffffffffffffffffffffffffffffff1673ffffffffffffffffffffffffffffffffffffffff16815260200190815260200160002060000160009054906101000a900460ff166102aa576040517f08c379a00000000000000000000000000000000000000000000000000000000081526004016102a190611422565b60405180910390fd5b60018060008373ffffffffffffffffffffffffffffffffffffffff1673ffffffffffffffffffffffffffffffffffffffff16815260200190815260200160002060000160016101000a81548160ff02191690831515021790555050565b6060816000600160003373ffffffffffffffffffffffffffffffffffffffff1673ffffffffffffffffffffffffffffffffffffffff16815260200190815260200160002060000160009054906101000a900460ff1690506000600160003373ffffffffffffffffffffffffffffffffffffffff1673ffffffffffffffffffffffffffffffffffffffff16815260200190815260200160002060000160019054906101000a900460ff16905060008373ffffffffffffffffffffffffffffffffffffffff163373ffffffffffffffffffffffffffffffffffffffff1614905082806103ee5750815b806103f65750805b610435576040517f08c379a000000000000000000000000000000000000000000000000000000000815260040161042c90611422565b60405180910390fd5b6000600260008873ffffffffffffffffffffffffffffffffffffffff1673ffffffffffffffffffffffffffffffffffffffff16815260200190815260200160002054905060008167ffffffffffffffff8111156104bb577f4e487b7100000000000000000000000000000000000000000000000000000000600052604160045260246000fd5b6040519080825280602002602001820160405280156104f457816020015b6104e1610d19565b8152602001906001900390816104d95790505b50905060005b8281101561095a57600360008a73ffffffffffffffffffffffffffffffffffffffff1673ffffffffffffffffffffffffffffffffffffffff168152602001908152602001600020600082815260200190815260200160002060405180610120016040529081600082015481526020016001820180546105789061166b565b80601f01602080910402602001604051908101604052809291908181526020018280546105a49061166b565b80156105f15780601f106105c6576101008083540402835291602001916105f1565b820191906000526020600020905b8154815290600101906020018083116105d457829003601f168201915b5050505050815260200160028201805461060a9061166b565b80601f01602080910402602001604051908101604052809291908181526020018280546106369061166b565b80156106835780601f1061065857610100808354040283529160200191610683565b820191906000526020600020905b81548152906001019060200180831161066657829003601f168201915b505050505081526020016003820160009054906101000a900473ffffffffffffffffffffffffffffffffffffffff1673ffffffffffffffffffffffffffffffffffffffff1673ffffffffffffffffffffffffffffffffffffffff1681526020016004820160009054906101000a900473ffffffffffffffffffffffffffffffffffffffff1673ffffffffffffffffffffffffffffffffffffffff1673ffffffffffffffffffffffffffffffffffffffff168152602001600582015481526020016006820160009054906101000a900473ffffffffffffffffffffffffffffffffffffffff1673ffffffffffffffffffffffffffffffffffffffff1673ffffffffffffffffffffffffffffffffffffffff16815260200160078201805480602002602001604051908101604052809291908181526020016000905b828210156108695783829060005260206000200180546107dc9061166b565b80601f01602080910402602001604051908101604052809291908181526020018280546108089061166b565b80156108555780601f1061082a57610100808354040283529160200191610855565b820191906000526020600020905b81548152906001019060200180831161083857829003601f168201915b5050505050815260200190600101906107bd565b5050505081526020016008820180546108819061166b565b80601f01602080910402602001604051908101604052809291908181526020018280546108ad9061166b565b80156108fa5780601f106108cf576101008083540402835291602001916108fa565b820191906000526020600020905b8154815290600101906020018083116108dd57829003601f168201915b50505050508152505082828151811061093c577f4e487b7100000000000000000000000000000000000000000000000000000000600052603260045260246000fd5b602002602001018190525080806109529061169d565b9150506104fa565b50809650505050505050919050565b600160003373ffffffffffffffffffffffffffffffffffffffff1673ffffffffffffffffffffffffffffffffffffffff16815260200190815260200160002060000160019054906101000a900460ff166109f8576040517f08c379a00000000000000000000000000000000000000000000000000000000081526004016109ef90611422565b60405180910390fd5b6000600260008973ffffffffffffffffffffffffffffffffffffffff1673ffffffffffffffffffffffffffffffffffffffff16815260200190815260200160002054905060405180610120016040528060005481526020018781526020018681526020018873ffffffffffffffffffffffffffffffffffffffff1681526020018973ffffffffffffffffffffffffffffffffffffffff1681526020014281526020018573ffffffffffffffffffffffffffffffffffffffff16815260200184815260200183815250600360008a73ffffffffffffffffffffffffffffffffffffffff1673ffffffffffffffffffffffffffffffffffffffff1681526020019081526020016000206000838152602001908152602001600020600082015181600001556020820151816001019080519060200190610b36929190610da7565b506040820151816002019080519060200190610b53929190610da7565b5060608201518160030160006101000a81548173ffffffffffffffffffffffffffffffffffffffff021916908373ffffffffffffffffffffffffffffffffffffffff16021790555060808201518160040160006101000a81548173ffffffffffffffffffffffffffffffffffffffff021916908373ffffffffffffffffffffffffffffffffffffffff16021790555060a0820151816005015560c08201518160060160006101000a81548173ffffffffffffffffffffffffffffffffffffffff021916908373ffffffffffffffffffffffffffffffffffffffff16021790555060e0820151816007019080519060200190610c4f929190610e2d565b50610100820151816008019080519060200190610c6d929190610da7565b50905050600181610c7e9190611597565b600260008a73ffffffffffffffffffffffffffffffffffffffff1673ffffffffffffffffffffffffffffffffffffffff168152602001908152602001600020819055507f88919c45d9d7dd916e0367a3d90ea5059af1eb091c5a047cd5258938ea9f2bac600080815480929190610cf49061169d565b9190505589604051610d07929190611442565b60405180910390a15050505050505050565b604051806101200160405280600081526020016060815260200160608152602001600073ffffffffffffffffffffffffffffffffffffffff168152602001600073ffffffffffffffffffffffffffffffffffffffff16815260200160008152602001600073ffffffffffffffffffffffffffffffffffffffff16815260200160608152602001606081525090565b828054610db39061166b565b90600052602060002090601f016020900481019282610dd55760008555610e1c565b82601f10610dee57805160ff1916838001178555610e1c565b82800160010185558215610e1c579182015b82811115610e1b578251825591602001919060010190610e00565b5b509050610e299190610e8d565b5090565b828054828255906000526020600020908101928215610e7c579160200282015b82811115610e7b578251829080519060200190610e6b929190610da7565b5091602001919060010190610e4d565b5b509050610e899190610eaa565b5090565b5b80821115610ea6576000816000905550600101610e8e565b5090565b5b80821115610eca5760008181610ec19190610ece565b50600101610eab565b5090565b508054610eda9061166b565b6000825580601f10610eec5750610f0b565b601f016020900490600052602060002090810190610f0a9190610e8d565b5b50565b6000610f21610f1c8461149c565b61146b565b9050808382526020820190508260005b85811015610f615781358501610f478882610fe8565b845260208401935060208301925050600181019050610f31565b5050509392505050565b6000610f7e610f79846114c8565b61146b565b905082815260208101848484011115610f9657600080fd5b610fa1848285611629565b509392505050565b600081359050610fb881611784565b92915050565b600082601f830112610fcf57600080fd5b8135610fdf848260208601610f0e565b91505092915050565b600082601f830112610ff957600080fd5b8135611009848260208601610f6b565b91505092915050565b60006020828403121561102457600080fd5b600061103284828501610fa9565b91505092915050565b600080600080600080600060e0888a03121561105657600080fd5b60006110648a828b01610fa9565b97505060206110758a828b01610fa9565b965050604088013567ffffffffffffffff81111561109257600080fd5b61109e8a828b01610fe8565b955050606088013567ffffffffffffffff8111156110bb57600080fd5b6110c78a828b01610fe8565b94505060806110d88a828b01610fa9565b93505060a088013567ffffffffffffffff8111156110f557600080fd5b6111018a828b01610fbe565b92505060c088013567ffffffffffffffff81111561111e57600080fd5b61112a8a828b01610fe8565b91505092959891949750929550565b60006111458383611269565b905092915050565b60006111598383611308565b905092915050565b61116a816115ed565b82525050565b611179816115ed565b82525050565b600061118a82611518565b6111948185611553565b9350836020820285016111a6856114f8565b8060005b858110156111e257848403895281516111c38582611139565b94506111ce83611539565b925060208a019950506001810190506111aa565b50829750879550505050505092915050565b60006111ff82611523565b6112098185611564565b93508360208202850161121b85611508565b8060005b858110156112575784840389528151611238858261114d565b945061124383611546565b925060208a0199505060018101905061121f565b50829750879550505050505092915050565b60006112748261152e565b61127e8185611575565b935061128e818560208601611638565b61129781611773565b840191505092915050565b60006112af604083611586565b91507f54686973207573657220686173206e6f2073756666696369656e74206163636560008301527f73732072696768747320746f20706572666f726d207468697320616374696f6e6020830152604082019050919050565b60006101208301600083015161132160008601826113e2565b50602083015184820360208601526113398282611269565b915050604083015184820360408601526113538282611269565b91505060608301516113686060860182611161565b50608083015161137b6080860182611161565b5060a083015161138e60a08601826113e2565b5060c08301516113a160c0860182611161565b5060e083015184820360e08601526113b9828261117f565b9150506101008301518482036101008601526113d58282611269565b9150508091505092915050565b6113eb8161161f565b82525050565b6113fa8161161f565b82525050565b6000602082019050818103600083015261141a81846111f4565b905092915050565b6000602082019050818103600083015261143b816112a2565b9050919050565b600060408201905061145760008301856113f1565b6114646020830184611170565b9392505050565b6000604051905081810181811067ffffffffffffffff8211171561149257611491611744565b5b8060405250919050565b600067ffffffffffffffff8211156114b7576114b6611744565b5b602082029050602081019050919050565b600067ffffffffffffffff8211156114e3576114e2611744565b5b601f19601f8301169050602081019050919050565b6000819050602082019050919050565b6000819050602082019050919050565b600081519050919050565b600081519050919050565b600081519050919050565b6000602082019050919050565b6000602082019050919050565b600082825260208201905092915050565b600082825260208201905092915050565b600082825260208201905092915050565b600082825260208201905092915050565b60006115a28261161f565b91506115ad8361161f565b9250827fffffffffffffffffffffffffffffffffffffffffffffffffffffffffffffffff038211156115e2576115e16116e6565b5b828201905092915050565b60006115f8826115ff565b9050919050565b600073ffffffffffffffffffffffffffffffffffffffff82169050919050565b6000819050919050565b82818337600083830152505050565b60005b8381101561165657808201518184015260208101905061163b565b83811115611665576000848401525b50505050565b6000600282049050600182168061168357607f821691505b6020821081141561169757611696611715565b5b50919050565b60006116a88261161f565b91507fffffffffffffffffffffffffffffffffffffffffffffffffffffffffffffffff8214156116db576116da6116e6565b5b600182019050919050565b7f4e487b7100000000000000000000000000000000000000000000000000000000600052601160045260246000fd5b7f4e487b7100000000000000000000000000000000000000000000000000000000600052602260045260246000fd5b7f4e487b7100000000000000000000000000000000000000000000000000000000600052604160045260246000fd5b6000601f19601f8301169050919050565b61178d816115ed565b811461179857600080fd5b5056fea26469706673582212202e775516949ad0da151365bf3578abd8a00edded62a601a265ffc7c4c848cae364736f6c63430008000033",
  "immutableReferences": {},
  "source": "// SPDX-License-Identifier: UNLICENSED\npragma solidity ^0.8.0;\n\n/// @title MedikChain\n/// @author Radoslav Dimitrov\ncontract MedikChain {\n\n    struct MedicalRecord {\n        uint id;\n        string title;\n        string description;\n        address physician;\n        address patient;\n        uint date;\n        address medicalCenter;\n        string[] tags;\n        string attachment;\n    }\n\n    struct UserRole {\n        bool isAdmin; // Admins can grant edit access and can also edit\n        bool isEditor; // Editors can push changes to the blockchain\n    }\n\n    event MedicalRecordPublished (\n        uint id,\n        address patient\n    );\n\n    uint private recordsCount = 0;\n\n    // keeps mapping between user (their address) and their access rights\n    mapping(address => UserRole) private userRoles;\n\n    // keeps the mapping between users and the id generator for their records\n    mapping(address => uint) private recordsForPatients;\n\n    // @notice this mapping is the main structure of data for this contract\n    // it maps the patient address to a nested mapping of ids => records of data\n    mapping(address => mapping(uint => MedicalRecord)) private patientRecords;\n\n    constructor() {\n        // initially, only the creator has access rights\n        userRoles[msg.sender] = UserRole(true, true);\n    }\n\n    modifier onlyEditors() {\n        require(userRoles[msg.sender].isEditor, \"This user has no sufficient access rights to perform this action\");\n        _;\n    }\n\n    modifier onlyAdmins() {\n        require(userRoles[msg.sender].isAdmin, \"This user has no sufficient access rights to perform this action\");\n        _;\n    }\n\n    modifier onlyViewer(address _patient) {\n        bool isAdmin = userRoles[msg.sender].isAdmin;\n        bool isEditor = userRoles[msg.sender].isEditor;\n        bool isOwner = (msg.sender == _patient);\n        require(isAdmin || isEditor || isOwner, \"This user has no sufficient access rights to perform this action\");\n        _;\n    }\n\n    function grantAdminAccess(address _user) public onlyAdmins {\n        userRoles[_user].isAdmin = true;\n        userRoles[_user].isEditor = true;\n    }\n\n    function grantEditAccess(address _user) public onlyAdmins {\n        userRoles[_user].isEditor = true;\n    }\n\n    function addMedicalRecord(address _patient, address _physician, string memory _title, string memory _description, address _medicalCenter, string[] memory _tags, string memory _attachment) public onlyEditors {\n        uint recordsCountForUser = recordsForPatients[_patient];\n        patientRecords[_patient][recordsCountForUser] = MedicalRecord(recordsCount, _title, _description, _physician, _patient, block.timestamp, _medicalCenter, _tags, _attachment);\n        recordsForPatients[_patient] = recordsCountForUser + 1;\n        emit MedicalRecordPublished(recordsCount++, _patient);\n    }\n\n\n    function getMedicalRecords(address _patient) public onlyViewer(_patient) view returns (MedicalRecord[] memory) {\n        uint recordsCountForUser = recordsForPatients[_patient];\n        MedicalRecord[] memory result = new MedicalRecord[](recordsCountForUser);\n        for (uint i = 0; i < recordsCountForUser; i++) {\n            result[i] = patientRecords[_patient][i];\n        }\n        return result;\n    }\n}",
  "sourcePath": "/Users/i530753/Desktop/medikchain/medikchain/contracts/MedikChain.sol",
  "compiler": {
    "name": "solc",
    "version": "0.8.0+commit.c7dfd78e.Emscripten.clang"
  },
  "schemaVersion": "3.4.1",
  "updatedAt": "2021-06-02T20:55:37.791Z",
  "devdoc": {
    "author": "Radoslav Dimitrov",
    "kind": "dev",
    "methods": {},
    "title": "MedikChain",
    "version": 1
  },
  "userdoc": {
    "kind": "user",
    "methods": {},
    "version": 1
  }
}